{
  "contracts/Nestdrop.sol": {
    "Nestdrop": {
      "abi": [
        {
          "inputs": [
            {
              "internalType": "address",
              "name": "_NestCoin",
              "type": "address"
            }
          ],
          "stateMutability": "nonpayable",
          "type": "constructor"
        },
        {
          "anonymous": false,
          "inputs": [
            {
              "indexed": false,
              "internalType": "address",
              "name": "customer",
              "type": "address"
            },
            {
              "indexed": false,
              "internalType": "uint256",
              "name": "amount",
              "type": "uint256"
            }
          ],
          "name": "Dispatched",
          "type": "event"
        },
        {
          "inputs": [
            {
              "internalType": "address[]",
              "name": "_address",
              "type": "address[]"
            },
            {
              "internalType": "uint256[]",
              "name": "_rewards",
              "type": "uint256[]"
            }
          ],
          "name": "airdrop",
          "outputs": [],
          "stateMutability": "nonpayable",
          "type": "function"
        },
        {
          "inputs": [
            {
              "internalType": "address",
              "name": "_newAdmin",
              "type": "address"
            }
          ],
          "name": "assignAdmin",
          "outputs": [],
          "stateMutability": "nonpayable",
          "type": "function"
        },
        {
          "inputs": [],
          "name": "kill",
          "outputs": [],
          "stateMutability": "nonpayable",
          "type": "function"
        },
        {
          "inputs": [
            {
              "internalType": "address",
              "name": "_admin",
              "type": "address"
            }
          ],
          "name": "removeAdmin",
          "outputs": [],
          "stateMutability": "nonpayable",
          "type": "function"
        },
        {
          "inputs": [],
          "name": "token",
          "outputs": [
            {
              "internalType": "contract IERC20",
              "name": "",
              "type": "address"
            }
          ],
          "stateMutability": "view",
          "type": "function"
        }
      ],
      "evm": {
        "bytecode": {
          "linkReferences": {},
          "object": "60806040523480156200001157600080fd5b5060405162001a8b38038062001a8b833981810160405281019062000037919062000246565b6200006b7fd6132037dd6302b81d672f2838622d683dc6c932f508c9faae05942b246f8faf60001b620001d960201b60201c565b6200009f7f530b2611aebe840175a73898e078c7668069d951d53fbbaf9d4e4c124baa11ab60001b620001d960201b60201c565b620000d37ff45f2db53907d9cdd594fe19c635a11bb49e5ded92571a5106a56e377ddd689d60001b620001d960201b60201c565b60018060003373ffffffffffffffffffffffffffffffffffffffff1673ffffffffffffffffffffffffffffffffffffffff16815260200190815260200160002060006101000a81548160ff0219169083151502179055506200015e7f0facdc5bb45089e55f3f1e6eda487856e77583ab634468ef24d843bc5678223860001b620001d960201b60201c565b620001927f01d08866be78672a4ef4d08f79d2e57d5dcc4c95989539175cb739095fa9451f60001b620001d960201b60201c565b806000806101000a81548173ffffffffffffffffffffffffffffffffffffffff021916908373ffffffffffffffffffffffffffffffffffffffff1602179055505062000278565b50565b600080fd5b600073ffffffffffffffffffffffffffffffffffffffff82169050919050565b60006200020e82620001e1565b9050919050565b620002208162000201565b81146200022c57600080fd5b50565b600081519050620002408162000215565b92915050565b6000602082840312156200025f576200025e620001dc565b5b60006200026f848285016200022f565b91505092915050565b61180380620002886000396000f3fe608060405234801561001057600080fd5b50600436106100575760003560e01c80631785f53c1461005c5780633da7d2ed1461007857806341c0e1b514610094578063672434821461009e578063fc0c546a146100ba575b600080fd5b61007660048036038101906100719190611226565b6100d8565b005b610092600480360381019061008d9190611226565b6104e7565b005b61009c6107b9565b005b6100b860048036038101906100b3919061130e565b610a48565b005b6100c2611197565b6040516100cf91906113ee565b60405180910390f35b336101057f622f5f7726111892ed900c7ee53c0d48f741676296e36145e8fe227d57c311ff60001b6111bb565b6101317f368fab1fc2e4b4ff24e8146a40525c1d7282a3d1687d573d99faf8307aa0b01e60001b6111bb565b61015d7feba2e00ac49ff79c4a034727e9d318c30cf3590d63502aa25a51469908f7cb9260001b6111bb565b6000600160008373ffffffffffffffffffffffffffffffffffffffff1673ffffffffffffffffffffffffffffffffffffffff16815260200190815260200160002060009054906101000a900460ff1690506101da7ffeca950c279215b042966180408cd69f3025fc1574cf565fa31176743ce8b74660001b6111bb565b6102067f2a251d5b2a8ae86076e725b3a5c7dfe26a6b1d2f49bdf166b227146784ec4d0f60001b6111bb565b6102327ff9671648f2121e345d29be5aeba4536fefd16ec185703302a31e5f539a6955c660001b6111bb565b80610272576040517f08c379a000000000000000000000000000000000000000000000000000000000815260040161026990611466565b60405180910390fd5b61029e7fd337ae63fce39cd2e20af3c81c38a740390e8d283a72966af41629e40f6fcde860001b6111bb565b6102ca7f5e306346579a1f07d92bb94f575c88533641cb89f025e4bb06c2c3e2cfac134a60001b6111bb565b6102f67fe2db10b8308fead362a9c26d3ef2bc04b9d6e703a851ff8f540235d25e889e4e60001b6111bb565b6103227f7675d501cd75ddb03157932da70344b05fcb680159898c7a53d003f19e244ede60001b6111bb565b61034e7f1a1e736dcfd9aa948b356d5350db87ac8d73e749f7df60a04eb69dddfe2bf15460001b6111bb565b61037a7f06e19074cc98997d5d5b8d2dc497e5f75e5a79c5f50b124260f390888bffc6b060001b6111bb565b600160008473ffffffffffffffffffffffffffffffffffffffff1673ffffffffffffffffffffffffffffffffffffffff16815260200190815260200160002060009054906101000a900460ff16610406576040517f08c379a00000000000000000000000000000000000000000000000000000000081526004016103fd906114d2565b60405180910390fd5b6104327f3acef9ee364e81f4b0bf2ec77695ac63f4594f9c4301464c13edf2d6582095dc60001b6111bb565b61045e7f2b539b5611cbe832fec49bbedcdfbc73a8b4e833fa70edd34f9ad795d3027ab260001b6111bb565b61048a7f4d6740e0d53b73755057acc5ca15b38d8521d3629387d23cde37ec52ef0d34fe60001b6111bb565b6000600160008573ffffffffffffffffffffffffffffffffffffffff1673ffffffffffffffffffffffffffffffffffffffff16815260200190815260200160002060006101000a81548160ff021916908315150217905550505050565b336105147f622f5f7726111892ed900c7ee53c0d48f741676296e36145e8fe227d57c311ff60001b6111bb565b6105407f368fab1fc2e4b4ff24e8146a40525c1d7282a3d1687d573d99faf8307aa0b01e60001b6111bb565b61056c7feba2e00ac49ff79c4a034727e9d318c30cf3590d63502aa25a51469908f7cb9260001b6111bb565b6000600160008373ffffffffffffffffffffffffffffffffffffffff1673ffffffffffffffffffffffffffffffffffffffff16815260200190815260200160002060009054906101000a900460ff1690506105e97ffeca950c279215b042966180408cd69f3025fc1574cf565fa31176743ce8b74660001b6111bb565b6106157f2a251d5b2a8ae86076e725b3a5c7dfe26a6b1d2f49bdf166b227146784ec4d0f60001b6111bb565b6106417ff9671648f2121e345d29be5aeba4536fefd16ec185703302a31e5f539a6955c660001b6111bb565b80610681576040517f08c379a000000000000000000000000000000000000000000000000000000000815260040161067890611466565b60405180910390fd5b6106ad7fd337ae63fce39cd2e20af3c81c38a740390e8d283a72966af41629e40f6fcde860001b6111bb565b6106d97f5e306346579a1f07d92bb94f575c88533641cb89f025e4bb06c2c3e2cfac134a60001b6111bb565b6107057fa6c863a054b2b8136347f59308416860c485f23cb0f8bac3b84ee4fe4a5dfbf760001b6111bb565b6107317fd382b3727eb1c137d3f281d03d982aae4219f9d7aa6c4646214e236dd16fcd4060001b6111bb565b61075d7f62a145557e9ad21579f75dd3077e1f3ce9d97822b0acdfb0de4e564de02ec20360001b6111bb565b60018060008573ffffffffffffffffffffffffffffffffffffffff1673ffffffffffffffffffffffffffffffffffffffff16815260200190815260200160002060006101000a81548160ff021916908315150217905550505050565b336107e67f622f5f7726111892ed900c7ee53c0d48f741676296e36145e8fe227d57c311ff60001b6111bb565b6108127f368fab1fc2e4b4ff24e8146a40525c1d7282a3d1687d573d99faf8307aa0b01e60001b6111bb565b61083e7feba2e00ac49ff79c4a034727e9d318c30cf3590d63502aa25a51469908f7cb9260001b6111bb565b6000600160008373ffffffffffffffffffffffffffffffffffffffff1673ffffffffffffffffffffffffffffffffffffffff16815260200190815260200160002060009054906101000a900460ff1690506108bb7ffeca950c279215b042966180408cd69f3025fc1574cf565fa31176743ce8b74660001b6111bb565b6108e77f2a251d5b2a8ae86076e725b3a5c7dfe26a6b1d2f49bdf166b227146784ec4d0f60001b6111bb565b6109137ff9671648f2121e345d29be5aeba4536fefd16ec185703302a31e5f539a6955c660001b6111bb565b80610953576040517f08c379a000000000000000000000000000000000000000000000000000000000815260040161094a90611466565b60405180910390fd5b61097f7fd337ae63fce39cd2e20af3c81c38a740390e8d283a72966af41629e40f6fcde860001b6111bb565b6109ab7f5e306346579a1f07d92bb94f575c88533641cb89f025e4bb06c2c3e2cfac134a60001b6111bb565b6109d77f3aac18163b16b29b4ec5deb8405550a73c98673343e430987ac38948f4892b1460001b6111bb565b610a037ff9a8654947babd90d8c7a51cb953b5cec21052d56a78d1b43c133c2c7b1b904160001b6111bb565b610a2f7fa2474e0a9db0987946ec834ddf10e0483049c1a7d0e4192f62bf4f3d7105f23660001b6111bb565b3373ffffffffffffffffffffffffffffffffffffffff16ff5b33610a757f622f5f7726111892ed900c7ee53c0d48f741676296e36145e8fe227d57c311ff60001b6111bb565b610aa17f368fab1fc2e4b4ff24e8146a40525c1d7282a3d1687d573d99faf8307aa0b01e60001b6111bb565b610acd7feba2e00ac49ff79c4a034727e9d318c30cf3590d63502aa25a51469908f7cb9260001b6111bb565b6000600160008373ffffffffffffffffffffffffffffffffffffffff1673ffffffffffffffffffffffffffffffffffffffff16815260200190815260200160002060009054906101000a900460ff169050610b4a7ffeca950c279215b042966180408cd69f3025fc1574cf565fa31176743ce8b74660001b6111bb565b610b767f2a251d5b2a8ae86076e725b3a5c7dfe26a6b1d2f49bdf166b227146784ec4d0f60001b6111bb565b610ba27ff9671648f2121e345d29be5aeba4536fefd16ec185703302a31e5f539a6955c660001b6111bb565b80610be2576040517f08c379a0000000000000000000000000000000000000000000000000000000008152600401610bd990611466565b60405180910390fd5b610c0e7fd337ae63fce39cd2e20af3c81c38a740390e8d283a72966af41629e40f6fcde860001b6111bb565b610c3a7f5e306346579a1f07d92bb94f575c88533641cb89f025e4bb06c2c3e2cfac134a60001b6111bb565b610c667ffcfb3cd2861bf2044c3d5d3b468abf9bc84879dd8b180ad617aa2fa2d0e1132760001b6111bb565b610c927f8fd2018656d35bdb74070775c0c86b39769395ab24c603801255bde64532607e60001b6111bb565b610cbe7f282e3f9ce562717f71105e457a9653248b6940dc9671496c6b2a296a59e690f760001b6111bb565b610cea7f3038fa075104855d939c02b2a9b5b7ea377022d955fb49500b42e0ee5751cdb260001b6111bb565b838390508686905014610d32576040517f08c379a0000000000000000000000000000000000000000000000000000000008152600401610d299061153e565b60405180910390fd5b610d5e7ff8a180f55fd3414aa61c7bc5276401ff52d0c140924ef6538394b521789ea19c60001b6111bb565b610d8a7f946dab71372d0861dd1afde74cd7921a3efc71832b68916a9b10b28c15d7fbb860001b6111bb565b610db67fc642095a1c2d95a23eb063466698332c334aca2c622d7d4f0399ebcfb2de745260001b6111bb565b610de27f265a9ebaa31420c58e8a679515cf4ebb7d29192beffbc2e212d798d636f300ca60001b6111bb565b60c8868690501115610e29576040517f08c379a0000000000000000000000000000000000000000000000000000000008152600401610e20906115f6565b60405180910390fd5b610e557f01c87928e31b717b7582d854e205d35c9ffc84835632b94ac185a4802f64976060001b6111bb565b610e817f60a0a9863a927bbd6165a780cc3fdde5e4688b37942b251a20707f222b64f40160001b6111bb565b610ead7fb27babf2dcb5b6c4a3b3c6e49a1ecea280f648824f5adf4af7b4396bb705c29d60001b6111bb565b60005b8686905081101561118e57610ee77f28a0068a98e4ce68af7c58821f1a3953481b96b205eb06757e4c2aa444b321d460001b6111bb565b610f137faa8a93cabfb73a27828253cab810033e1087530cc9d1d38a0790d99c52a89fce60001b6111bb565b6000670de0b6b3a7640000868684818110610f3157610f30611616565b5b90506020020135610f42919061167e565b9050610f707f473bc85caed8d1027d3794aea17c3163998b6896eb204de6d843053f3cf2a08a60001b6111bb565b610f9c7f9ab40fbfbf75ccc8007d86f487976546e1ae40666b1fac02be6b92114e2b0c9a60001b6111bb565b610fc87fb366572d270969a5cc5e49955bad24bb79ae621db7cbf6d51a7339db66a5b20560001b6111bb565b60008054906101000a900473ffffffffffffffffffffffffffffffffffffffff1673ffffffffffffffffffffffffffffffffffffffff1663a9059cbb89898581811061101757611016611616565b5b905060200201602081019061102c9190611226565b836040518363ffffffff1660e01b815260040161104a9291906116f6565b6020604051808303816000875af1158015611069573d6000803e3d6000fd5b505050506040513d601f19601f8201168201806040525081019061108d9190611757565b61109657600080fd5b6110c27ffabf7862d9a03c984d75fa9141141cdf188fb84eac170133fbc727f13305379660001b6111bb565b6110ee7f2d4ff4be0bf0d5af482f1f63ea6557f93839aec9dde1667180b350c40f968ce260001b6111bb565b61111a7f4793bd11db294c80617044b86a106aa888854746e095019279688dc0bbb1960860001b6111bb565b7f6979598ca4d86fb9b9ff448d56594c8a75674c28a0fd4d913b7e4d342f0cd6a088888481811061114e5761114d611616565b5b90506020020160208101906111639190611226565b826040516111729291906116f6565b60405180910390a150808061118690611784565b915050610eb0565b50505050505050565b60008054906101000a900473ffffffffffffffffffffffffffffffffffffffff1681565b50565b600080fd5b600080fd5b600073ffffffffffffffffffffffffffffffffffffffff82169050919050565b60006111f3826111c8565b9050919050565b611203816111e8565b811461120e57600080fd5b50565b600081359050611220816111fa565b92915050565b60006020828403121561123c5761123b6111be565b5b600061124a84828501611211565b91505092915050565b600080fd5b600080fd5b600080fd5b60008083601f84011261127857611277611253565b5b8235905067ffffffffffffffff81111561129557611294611258565b5b6020830191508360208202830111156112b1576112b061125d565b5b9250929050565b60008083601f8401126112ce576112cd611253565b5b8235905067ffffffffffffffff8111156112eb576112ea611258565b5b6020830191508360208202830111156113075761130661125d565b5b9250929050565b60008060008060408587031215611328576113276111be565b5b600085013567ffffffffffffffff811115611346576113456111c3565b5b61135287828801611262565b9450945050602085013567ffffffffffffffff811115611375576113746111c3565b5b611381878288016112b8565b925092505092959194509250565b6000819050919050565b60006113b46113af6113aa846111c8565b61138f565b6111c8565b9050919050565b60006113c682611399565b9050919050565b60006113d8826113bb565b9050919050565b6113e8816113cd565b82525050565b600060208201905061140360008301846113df565b92915050565b600082825260208201905092915050565b7f4f6e6c792041646d696e20486173204163636573732100000000000000000000600082015250565b6000611450601683611409565b915061145b8261141a565b602082019050919050565b6000602082019050818103600083015261147f81611443565b9050919050565b7f41646472657373206973206e6f7420616e2061646d696e2e0000000000000000600082015250565b60006114bc601883611409565b91506114c782611486565b602082019050919050565b600060208201905081810360008301526114eb816114af565b9050919050565b7f4172726179204c656e67746873206d75737420626520657175616c2e00000000600082015250565b6000611528601c83611409565b9150611533826114f2565b602082019050919050565b600060208201905081810360008301526115578161151b565b9050919050565b7f736f7272792c206d6178696d756d206e756d626572206f66206164647265737360008201527f6573206f6e2061206c6973742063616e6e6f74206265206d6f7265207468616e60208201527f2032303000000000000000000000000000000000000000000000000000000000604082015250565b60006115e0604483611409565b91506115eb8261155e565b606082019050919050565b6000602082019050818103600083015261160f816115d3565b9050919050565b7f4e487b7100000000000000000000000000000000000000000000000000000000600052603260045260246000fd5b6000819050919050565b7f4e487b7100000000000000000000000000000000000000000000000000000000600052601160045260246000fd5b600061168982611645565b915061169483611645565b9250817fffffffffffffffffffffffffffffffffffffffffffffffffffffffffffffffff04831182151516156116cd576116cc61164f565b5b828202905092915050565b6116e1816111e8565b82525050565b6116f081611645565b82525050565b600060408201905061170b60008301856116d8565b61171860208301846116e7565b9392505050565b60008115159050919050565b6117348161171f565b811461173f57600080fd5b50565b6000815190506117518161172b565b92915050565b60006020828403121561176d5761176c6111be565b5b600061177b84828501611742565b91505092915050565b600061178f82611645565b91507fffffffffffffffffffffffffffffffffffffffffffffffffffffffffffffffff8214156117c2576117c161164f565b5b60018201905091905056fea26469706673582212209fe5baf2d4e4c07d3946f9ce9eb426cce5a1748d589e3df5414c3e5ec4aea07764736f6c634300080a0033",
          "opcodes": "PUSH1 0x80 PUSH1 0x40 MSTORE CALLVALUE DUP1 ISZERO PUSH3 0x11 JUMPI PUSH1 0x0 DUP1 REVERT JUMPDEST POP PUSH1 0x40 MLOAD PUSH3 0x1A8B CODESIZE SUB DUP1 PUSH3 0x1A8B DUP4 CODECOPY DUP2 DUP2 ADD PUSH1 0x40 MSTORE DUP2 ADD SWAP1 PUSH3 0x37 SWAP2 SWAP1 PUSH3 0x246 JUMP JUMPDEST PUSH3 0x6B PUSH32 0xD6132037DD6302B81D672F2838622D683DC6C932F508C9FAAE05942B246F8FAF PUSH1 0x0 SHL PUSH3 0x1D9 PUSH1 0x20 SHL PUSH1 0x20 SHR JUMP JUMPDEST PUSH3 0x9F PUSH32 0x530B2611AEBE840175A73898E078C7668069D951D53FBBAF9D4E4C124BAA11AB PUSH1 0x0 SHL PUSH3 0x1D9 PUSH1 0x20 SHL PUSH1 0x20 SHR JUMP JUMPDEST PUSH3 0xD3 PUSH32 0xF45F2DB53907D9CDD594FE19C635A11BB49E5DED92571A5106A56E377DDD689D PUSH1 0x0 SHL PUSH3 0x1D9 PUSH1 0x20 SHL PUSH1 0x20 SHR JUMP JUMPDEST PUSH1 0x1 DUP1 PUSH1 0x0 CALLER PUSH20 0xFFFFFFFFFFFFFFFFFFFFFFFFFFFFFFFFFFFFFFFF AND PUSH20 0xFFFFFFFFFFFFFFFFFFFFFFFFFFFFFFFFFFFFFFFF AND DUP2 MSTORE PUSH1 0x20 ADD SWAP1 DUP2 MSTORE PUSH1 0x20 ADD PUSH1 0x0 KECCAK256 PUSH1 0x0 PUSH2 0x100 EXP DUP2 SLOAD DUP2 PUSH1 0xFF MUL NOT AND SWAP1 DUP4 ISZERO ISZERO MUL OR SWAP1 SSTORE POP PUSH3 0x15E PUSH32 0xFACDC5BB45089E55F3F1E6EDA487856E77583AB634468EF24D843BC56782238 PUSH1 0x0 SHL PUSH3 0x1D9 PUSH1 0x20 SHL PUSH1 0x20 SHR JUMP JUMPDEST PUSH3 0x192 PUSH32 0x1D08866BE78672A4EF4D08F79D2E57D5DCC4C95989539175CB739095FA9451F PUSH1 0x0 SHL PUSH3 0x1D9 PUSH1 0x20 SHL PUSH1 0x20 SHR JUMP JUMPDEST DUP1 PUSH1 0x0 DUP1 PUSH2 0x100 EXP DUP2 SLOAD DUP2 PUSH20 0xFFFFFFFFFFFFFFFFFFFFFFFFFFFFFFFFFFFFFFFF MUL NOT AND SWAP1 DUP4 PUSH20 0xFFFFFFFFFFFFFFFFFFFFFFFFFFFFFFFFFFFFFFFF AND MUL OR SWAP1 SSTORE POP POP PUSH3 0x278 JUMP JUMPDEST POP JUMP JUMPDEST PUSH1 0x0 DUP1 REVERT JUMPDEST PUSH1 0x0 PUSH20 0xFFFFFFFFFFFFFFFFFFFFFFFFFFFFFFFFFFFFFFFF DUP3 AND SWAP1 POP SWAP2 SWAP1 POP JUMP JUMPDEST PUSH1 0x0 PUSH3 0x20E DUP3 PUSH3 0x1E1 JUMP JUMPDEST SWAP1 POP SWAP2 SWAP1 POP JUMP JUMPDEST PUSH3 0x220 DUP2 PUSH3 0x201 JUMP JUMPDEST DUP2 EQ PUSH3 0x22C JUMPI PUSH1 0x0 DUP1 REVERT JUMPDEST POP JUMP JUMPDEST PUSH1 0x0 DUP2 MLOAD SWAP1 POP PUSH3 0x240 DUP2 PUSH3 0x215 JUMP JUMPDEST SWAP3 SWAP2 POP POP JUMP JUMPDEST PUSH1 0x0 PUSH1 0x20 DUP3 DUP5 SUB SLT ISZERO PUSH3 0x25F JUMPI PUSH3 0x25E PUSH3 0x1DC JUMP JUMPDEST JUMPDEST PUSH1 0x0 PUSH3 0x26F DUP5 DUP3 DUP6 ADD PUSH3 0x22F JUMP JUMPDEST SWAP2 POP POP SWAP3 SWAP2 POP POP JUMP JUMPDEST PUSH2 0x1803 DUP1 PUSH3 0x288 PUSH1 0x0 CODECOPY PUSH1 0x0 RETURN INVALID PUSH1 0x80 PUSH1 0x40 MSTORE CALLVALUE DUP1 ISZERO PUSH2 0x10 JUMPI PUSH1 0x0 DUP1 REVERT JUMPDEST POP PUSH1 0x4 CALLDATASIZE LT PUSH2 0x57 JUMPI PUSH1 0x0 CALLDATALOAD PUSH1 0xE0 SHR DUP1 PUSH4 0x1785F53C EQ PUSH2 0x5C JUMPI DUP1 PUSH4 0x3DA7D2ED EQ PUSH2 0x78 JUMPI DUP1 PUSH4 0x41C0E1B5 EQ PUSH2 0x94 JUMPI DUP1 PUSH4 0x67243482 EQ PUSH2 0x9E JUMPI DUP1 PUSH4 0xFC0C546A EQ PUSH2 0xBA JUMPI JUMPDEST PUSH1 0x0 DUP1 REVERT JUMPDEST PUSH2 0x76 PUSH1 0x4 DUP1 CALLDATASIZE SUB DUP2 ADD SWAP1 PUSH2 0x71 SWAP2 SWAP1 PUSH2 0x1226 JUMP JUMPDEST PUSH2 0xD8 JUMP JUMPDEST STOP JUMPDEST PUSH2 0x92 PUSH1 0x4 DUP1 CALLDATASIZE SUB DUP2 ADD SWAP1 PUSH2 0x8D SWAP2 SWAP1 PUSH2 0x1226 JUMP JUMPDEST PUSH2 0x4E7 JUMP JUMPDEST STOP JUMPDEST PUSH2 0x9C PUSH2 0x7B9 JUMP JUMPDEST STOP JUMPDEST PUSH2 0xB8 PUSH1 0x4 DUP1 CALLDATASIZE SUB DUP2 ADD SWAP1 PUSH2 0xB3 SWAP2 SWAP1 PUSH2 0x130E JUMP JUMPDEST PUSH2 0xA48 JUMP JUMPDEST STOP JUMPDEST PUSH2 0xC2 PUSH2 0x1197 JUMP JUMPDEST PUSH1 0x40 MLOAD PUSH2 0xCF SWAP2 SWAP1 PUSH2 0x13EE JUMP JUMPDEST PUSH1 0x40 MLOAD DUP1 SWAP2 SUB SWAP1 RETURN JUMPDEST CALLER PUSH2 0x105 PUSH32 0x622F5F7726111892ED900C7EE53C0D48F741676296E36145E8FE227D57C311FF PUSH1 0x0 SHL PUSH2 0x11BB JUMP JUMPDEST PUSH2 0x131 PUSH32 0x368FAB1FC2E4B4FF24E8146A40525C1D7282A3D1687D573D99FAF8307AA0B01E PUSH1 0x0 SHL PUSH2 0x11BB JUMP JUMPDEST PUSH2 0x15D PUSH32 0xEBA2E00AC49FF79C4A034727E9D318C30CF3590D63502AA25A51469908F7CB92 PUSH1 0x0 SHL PUSH2 0x11BB JUMP JUMPDEST PUSH1 0x0 PUSH1 0x1 PUSH1 0x0 DUP4 PUSH20 0xFFFFFFFFFFFFFFFFFFFFFFFFFFFFFFFFFFFFFFFF AND PUSH20 0xFFFFFFFFFFFFFFFFFFFFFFFFFFFFFFFFFFFFFFFF AND DUP2 MSTORE PUSH1 0x20 ADD SWAP1 DUP2 MSTORE PUSH1 0x20 ADD PUSH1 0x0 KECCAK256 PUSH1 0x0 SWAP1 SLOAD SWAP1 PUSH2 0x100 EXP SWAP1 DIV PUSH1 0xFF AND SWAP1 POP PUSH2 0x1DA PUSH32 0xFECA950C279215B042966180408CD69F3025FC1574CF565FA31176743CE8B746 PUSH1 0x0 SHL PUSH2 0x11BB JUMP JUMPDEST PUSH2 0x206 PUSH32 0x2A251D5B2A8AE86076E725B3A5C7DFE26A6B1D2F49BDF166B227146784EC4D0F PUSH1 0x0 SHL PUSH2 0x11BB JUMP JUMPDEST PUSH2 0x232 PUSH32 0xF9671648F2121E345D29BE5AEBA4536FEFD16EC185703302A31E5F539A6955C6 PUSH1 0x0 SHL PUSH2 0x11BB JUMP JUMPDEST DUP1 PUSH2 0x272 JUMPI PUSH1 0x40 MLOAD PUSH32 0x8C379A000000000000000000000000000000000000000000000000000000000 DUP2 MSTORE PUSH1 0x4 ADD PUSH2 0x269 SWAP1 PUSH2 0x1466 JUMP JUMPDEST PUSH1 0x40 MLOAD DUP1 SWAP2 SUB SWAP1 REVERT JUMPDEST PUSH2 0x29E PUSH32 0xD337AE63FCE39CD2E20AF3C81C38A740390E8D283A72966AF41629E40F6FCDE8 PUSH1 0x0 SHL PUSH2 0x11BB JUMP JUMPDEST PUSH2 0x2CA PUSH32 0x5E306346579A1F07D92BB94F575C88533641CB89F025E4BB06C2C3E2CFAC134A PUSH1 0x0 SHL PUSH2 0x11BB JUMP JUMPDEST PUSH2 0x2F6 PUSH32 0xE2DB10B8308FEAD362A9C26D3EF2BC04B9D6E703A851FF8F540235D25E889E4E PUSH1 0x0 SHL PUSH2 0x11BB JUMP JUMPDEST PUSH2 0x322 PUSH32 0x7675D501CD75DDB03157932DA70344B05FCB680159898C7A53D003F19E244EDE PUSH1 0x0 SHL PUSH2 0x11BB JUMP JUMPDEST PUSH2 0x34E PUSH32 0x1A1E736DCFD9AA948B356D5350DB87AC8D73E749F7DF60A04EB69DDDFE2BF154 PUSH1 0x0 SHL PUSH2 0x11BB JUMP JUMPDEST PUSH2 0x37A PUSH32 0x6E19074CC98997D5D5B8D2DC497E5F75E5A79C5F50B124260F390888BFFC6B0 PUSH1 0x0 SHL PUSH2 0x11BB JUMP JUMPDEST PUSH1 0x1 PUSH1 0x0 DUP5 PUSH20 0xFFFFFFFFFFFFFFFFFFFFFFFFFFFFFFFFFFFFFFFF AND PUSH20 0xFFFFFFFFFFFFFFFFFFFFFFFFFFFFFFFFFFFFFFFF AND DUP2 MSTORE PUSH1 0x20 ADD SWAP1 DUP2 MSTORE PUSH1 0x20 ADD PUSH1 0x0 KECCAK256 PUSH1 0x0 SWAP1 SLOAD SWAP1 PUSH2 0x100 EXP SWAP1 DIV PUSH1 0xFF AND PUSH2 0x406 JUMPI PUSH1 0x40 MLOAD PUSH32 0x8C379A000000000000000000000000000000000000000000000000000000000 DUP2 MSTORE PUSH1 0x4 ADD PUSH2 0x3FD SWAP1 PUSH2 0x14D2 JUMP JUMPDEST PUSH1 0x40 MLOAD DUP1 SWAP2 SUB SWAP1 REVERT JUMPDEST PUSH2 0x432 PUSH32 0x3ACEF9EE364E81F4B0BF2EC77695AC63F4594F9C4301464C13EDF2D6582095DC PUSH1 0x0 SHL PUSH2 0x11BB JUMP JUMPDEST PUSH2 0x45E PUSH32 0x2B539B5611CBE832FEC49BBEDCDFBC73A8B4E833FA70EDD34F9AD795D3027AB2 PUSH1 0x0 SHL PUSH2 0x11BB JUMP JUMPDEST PUSH2 0x48A PUSH32 0x4D6740E0D53B73755057ACC5CA15B38D8521D3629387D23CDE37EC52EF0D34FE PUSH1 0x0 SHL PUSH2 0x11BB JUMP JUMPDEST PUSH1 0x0 PUSH1 0x1 PUSH1 0x0 DUP6 PUSH20 0xFFFFFFFFFFFFFFFFFFFFFFFFFFFFFFFFFFFFFFFF AND PUSH20 0xFFFFFFFFFFFFFFFFFFFFFFFFFFFFFFFFFFFFFFFF AND DUP2 MSTORE PUSH1 0x20 ADD SWAP1 DUP2 MSTORE PUSH1 0x20 ADD PUSH1 0x0 KECCAK256 PUSH1 0x0 PUSH2 0x100 EXP DUP2 SLOAD DUP2 PUSH1 0xFF MUL NOT AND SWAP1 DUP4 ISZERO ISZERO MUL OR SWAP1 SSTORE POP POP POP POP JUMP JUMPDEST CALLER PUSH2 0x514 PUSH32 0x622F5F7726111892ED900C7EE53C0D48F741676296E36145E8FE227D57C311FF PUSH1 0x0 SHL PUSH2 0x11BB JUMP JUMPDEST PUSH2 0x540 PUSH32 0x368FAB1FC2E4B4FF24E8146A40525C1D7282A3D1687D573D99FAF8307AA0B01E PUSH1 0x0 SHL PUSH2 0x11BB JUMP JUMPDEST PUSH2 0x56C PUSH32 0xEBA2E00AC49FF79C4A034727E9D318C30CF3590D63502AA25A51469908F7CB92 PUSH1 0x0 SHL PUSH2 0x11BB JUMP JUMPDEST PUSH1 0x0 PUSH1 0x1 PUSH1 0x0 DUP4 PUSH20 0xFFFFFFFFFFFFFFFFFFFFFFFFFFFFFFFFFFFFFFFF AND PUSH20 0xFFFFFFFFFFFFFFFFFFFFFFFFFFFFFFFFFFFFFFFF AND DUP2 MSTORE PUSH1 0x20 ADD SWAP1 DUP2 MSTORE PUSH1 0x20 ADD PUSH1 0x0 KECCAK256 PUSH1 0x0 SWAP1 SLOAD SWAP1 PUSH2 0x100 EXP SWAP1 DIV PUSH1 0xFF AND SWAP1 POP PUSH2 0x5E9 PUSH32 0xFECA950C279215B042966180408CD69F3025FC1574CF565FA31176743CE8B746 PUSH1 0x0 SHL PUSH2 0x11BB JUMP JUMPDEST PUSH2 0x615 PUSH32 0x2A251D5B2A8AE86076E725B3A5C7DFE26A6B1D2F49BDF166B227146784EC4D0F PUSH1 0x0 SHL PUSH2 0x11BB JUMP JUMPDEST PUSH2 0x641 PUSH32 0xF9671648F2121E345D29BE5AEBA4536FEFD16EC185703302A31E5F539A6955C6 PUSH1 0x0 SHL PUSH2 0x11BB JUMP JUMPDEST DUP1 PUSH2 0x681 JUMPI PUSH1 0x40 MLOAD PUSH32 0x8C379A000000000000000000000000000000000000000000000000000000000 DUP2 MSTORE PUSH1 0x4 ADD PUSH2 0x678 SWAP1 PUSH2 0x1466 JUMP JUMPDEST PUSH1 0x40 MLOAD DUP1 SWAP2 SUB SWAP1 REVERT JUMPDEST PUSH2 0x6AD PUSH32 0xD337AE63FCE39CD2E20AF3C81C38A740390E8D283A72966AF41629E40F6FCDE8 PUSH1 0x0 SHL PUSH2 0x11BB JUMP JUMPDEST PUSH2 0x6D9 PUSH32 0x5E306346579A1F07D92BB94F575C88533641CB89F025E4BB06C2C3E2CFAC134A PUSH1 0x0 SHL PUSH2 0x11BB JUMP JUMPDEST PUSH2 0x705 PUSH32 0xA6C863A054B2B8136347F59308416860C485F23CB0F8BAC3B84EE4FE4A5DFBF7 PUSH1 0x0 SHL PUSH2 0x11BB JUMP JUMPDEST PUSH2 0x731 PUSH32 0xD382B3727EB1C137D3F281D03D982AAE4219F9D7AA6C4646214E236DD16FCD40 PUSH1 0x0 SHL PUSH2 0x11BB JUMP JUMPDEST PUSH2 0x75D PUSH32 0x62A145557E9AD21579F75DD3077E1F3CE9D97822B0ACDFB0DE4E564DE02EC203 PUSH1 0x0 SHL PUSH2 0x11BB JUMP JUMPDEST PUSH1 0x1 DUP1 PUSH1 0x0 DUP6 PUSH20 0xFFFFFFFFFFFFFFFFFFFFFFFFFFFFFFFFFFFFFFFF AND PUSH20 0xFFFFFFFFFFFFFFFFFFFFFFFFFFFFFFFFFFFFFFFF AND DUP2 MSTORE PUSH1 0x20 ADD SWAP1 DUP2 MSTORE PUSH1 0x20 ADD PUSH1 0x0 KECCAK256 PUSH1 0x0 PUSH2 0x100 EXP DUP2 SLOAD DUP2 PUSH1 0xFF MUL NOT AND SWAP1 DUP4 ISZERO ISZERO MUL OR SWAP1 SSTORE POP POP POP POP JUMP JUMPDEST CALLER PUSH2 0x7E6 PUSH32 0x622F5F7726111892ED900C7EE53C0D48F741676296E36145E8FE227D57C311FF PUSH1 0x0 SHL PUSH2 0x11BB JUMP JUMPDEST PUSH2 0x812 PUSH32 0x368FAB1FC2E4B4FF24E8146A40525C1D7282A3D1687D573D99FAF8307AA0B01E PUSH1 0x0 SHL PUSH2 0x11BB JUMP JUMPDEST PUSH2 0x83E PUSH32 0xEBA2E00AC49FF79C4A034727E9D318C30CF3590D63502AA25A51469908F7CB92 PUSH1 0x0 SHL PUSH2 0x11BB JUMP JUMPDEST PUSH1 0x0 PUSH1 0x1 PUSH1 0x0 DUP4 PUSH20 0xFFFFFFFFFFFFFFFFFFFFFFFFFFFFFFFFFFFFFFFF AND PUSH20 0xFFFFFFFFFFFFFFFFFFFFFFFFFFFFFFFFFFFFFFFF AND DUP2 MSTORE PUSH1 0x20 ADD SWAP1 DUP2 MSTORE PUSH1 0x20 ADD PUSH1 0x0 KECCAK256 PUSH1 0x0 SWAP1 SLOAD SWAP1 PUSH2 0x100 EXP SWAP1 DIV PUSH1 0xFF AND SWAP1 POP PUSH2 0x8BB PUSH32 0xFECA950C279215B042966180408CD69F3025FC1574CF565FA31176743CE8B746 PUSH1 0x0 SHL PUSH2 0x11BB JUMP JUMPDEST PUSH2 0x8E7 PUSH32 0x2A251D5B2A8AE86076E725B3A5C7DFE26A6B1D2F49BDF166B227146784EC4D0F PUSH1 0x0 SHL PUSH2 0x11BB JUMP JUMPDEST PUSH2 0x913 PUSH32 0xF9671648F2121E345D29BE5AEBA4536FEFD16EC185703302A31E5F539A6955C6 PUSH1 0x0 SHL PUSH2 0x11BB JUMP JUMPDEST DUP1 PUSH2 0x953 JUMPI PUSH1 0x40 MLOAD PUSH32 0x8C379A000000000000000000000000000000000000000000000000000000000 DUP2 MSTORE PUSH1 0x4 ADD PUSH2 0x94A SWAP1 PUSH2 0x1466 JUMP JUMPDEST PUSH1 0x40 MLOAD DUP1 SWAP2 SUB SWAP1 REVERT JUMPDEST PUSH2 0x97F PUSH32 0xD337AE63FCE39CD2E20AF3C81C38A740390E8D283A72966AF41629E40F6FCDE8 PUSH1 0x0 SHL PUSH2 0x11BB JUMP JUMPDEST PUSH2 0x9AB PUSH32 0x5E306346579A1F07D92BB94F575C88533641CB89F025E4BB06C2C3E2CFAC134A PUSH1 0x0 SHL PUSH2 0x11BB JUMP JUMPDEST PUSH2 0x9D7 PUSH32 0x3AAC18163B16B29B4EC5DEB8405550A73C98673343E430987AC38948F4892B14 PUSH1 0x0 SHL PUSH2 0x11BB JUMP JUMPDEST PUSH2 0xA03 PUSH32 0xF9A8654947BABD90D8C7A51CB953B5CEC21052D56A78D1B43C133C2C7B1B9041 PUSH1 0x0 SHL PUSH2 0x11BB JUMP JUMPDEST PUSH2 0xA2F PUSH32 0xA2474E0A9DB0987946EC834DDF10E0483049C1A7D0E4192F62BF4F3D7105F236 PUSH1 0x0 SHL PUSH2 0x11BB JUMP JUMPDEST CALLER PUSH20 0xFFFFFFFFFFFFFFFFFFFFFFFFFFFFFFFFFFFFFFFF AND SELFDESTRUCT JUMPDEST CALLER PUSH2 0xA75 PUSH32 0x622F5F7726111892ED900C7EE53C0D48F741676296E36145E8FE227D57C311FF PUSH1 0x0 SHL PUSH2 0x11BB JUMP JUMPDEST PUSH2 0xAA1 PUSH32 0x368FAB1FC2E4B4FF24E8146A40525C1D7282A3D1687D573D99FAF8307AA0B01E PUSH1 0x0 SHL PUSH2 0x11BB JUMP JUMPDEST PUSH2 0xACD PUSH32 0xEBA2E00AC49FF79C4A034727E9D318C30CF3590D63502AA25A51469908F7CB92 PUSH1 0x0 SHL PUSH2 0x11BB JUMP JUMPDEST PUSH1 0x0 PUSH1 0x1 PUSH1 0x0 DUP4 PUSH20 0xFFFFFFFFFFFFFFFFFFFFFFFFFFFFFFFFFFFFFFFF AND PUSH20 0xFFFFFFFFFFFFFFFFFFFFFFFFFFFFFFFFFFFFFFFF AND DUP2 MSTORE PUSH1 0x20 ADD SWAP1 DUP2 MSTORE PUSH1 0x20 ADD PUSH1 0x0 KECCAK256 PUSH1 0x0 SWAP1 SLOAD SWAP1 PUSH2 0x100 EXP SWAP1 DIV PUSH1 0xFF AND SWAP1 POP PUSH2 0xB4A PUSH32 0xFECA950C279215B042966180408CD69F3025FC1574CF565FA31176743CE8B746 PUSH1 0x0 SHL PUSH2 0x11BB JUMP JUMPDEST PUSH2 0xB76 PUSH32 0x2A251D5B2A8AE86076E725B3A5C7DFE26A6B1D2F49BDF166B227146784EC4D0F PUSH1 0x0 SHL PUSH2 0x11BB JUMP JUMPDEST PUSH2 0xBA2 PUSH32 0xF9671648F2121E345D29BE5AEBA4536FEFD16EC185703302A31E5F539A6955C6 PUSH1 0x0 SHL PUSH2 0x11BB JUMP JUMPDEST DUP1 PUSH2 0xBE2 JUMPI PUSH1 0x40 MLOAD PUSH32 0x8C379A000000000000000000000000000000000000000000000000000000000 DUP2 MSTORE PUSH1 0x4 ADD PUSH2 0xBD9 SWAP1 PUSH2 0x1466 JUMP JUMPDEST PUSH1 0x40 MLOAD DUP1 SWAP2 SUB SWAP1 REVERT JUMPDEST PUSH2 0xC0E PUSH32 0xD337AE63FCE39CD2E20AF3C81C38A740390E8D283A72966AF41629E40F6FCDE8 PUSH1 0x0 SHL PUSH2 0x11BB JUMP JUMPDEST PUSH2 0xC3A PUSH32 0x5E306346579A1F07D92BB94F575C88533641CB89F025E4BB06C2C3E2CFAC134A PUSH1 0x0 SHL PUSH2 0x11BB JUMP JUMPDEST PUSH2 0xC66 PUSH32 0xFCFB3CD2861BF2044C3D5D3B468ABF9BC84879DD8B180AD617AA2FA2D0E11327 PUSH1 0x0 SHL PUSH2 0x11BB JUMP JUMPDEST PUSH2 0xC92 PUSH32 0x8FD2018656D35BDB74070775C0C86B39769395AB24C603801255BDE64532607E PUSH1 0x0 SHL PUSH2 0x11BB JUMP JUMPDEST PUSH2 0xCBE PUSH32 0x282E3F9CE562717F71105E457A9653248B6940DC9671496C6B2A296A59E690F7 PUSH1 0x0 SHL PUSH2 0x11BB JUMP JUMPDEST PUSH2 0xCEA PUSH32 0x3038FA075104855D939C02B2A9B5B7EA377022D955FB49500B42E0EE5751CDB2 PUSH1 0x0 SHL PUSH2 0x11BB JUMP JUMPDEST DUP4 DUP4 SWAP1 POP DUP7 DUP7 SWAP1 POP EQ PUSH2 0xD32 JUMPI PUSH1 0x40 MLOAD PUSH32 0x8C379A000000000000000000000000000000000000000000000000000000000 DUP2 MSTORE PUSH1 0x4 ADD PUSH2 0xD29 SWAP1 PUSH2 0x153E JUMP JUMPDEST PUSH1 0x40 MLOAD DUP1 SWAP2 SUB SWAP1 REVERT JUMPDEST PUSH2 0xD5E PUSH32 0xF8A180F55FD3414AA61C7BC5276401FF52D0C140924EF6538394B521789EA19C PUSH1 0x0 SHL PUSH2 0x11BB JUMP JUMPDEST PUSH2 0xD8A PUSH32 0x946DAB71372D0861DD1AFDE74CD7921A3EFC71832B68916A9B10B28C15D7FBB8 PUSH1 0x0 SHL PUSH2 0x11BB JUMP JUMPDEST PUSH2 0xDB6 PUSH32 0xC642095A1C2D95A23EB063466698332C334ACA2C622D7D4F0399EBCFB2DE7452 PUSH1 0x0 SHL PUSH2 0x11BB JUMP JUMPDEST PUSH2 0xDE2 PUSH32 0x265A9EBAA31420C58E8A679515CF4EBB7D29192BEFFBC2E212D798D636F300CA PUSH1 0x0 SHL PUSH2 0x11BB JUMP JUMPDEST PUSH1 0xC8 DUP7 DUP7 SWAP1 POP GT ISZERO PUSH2 0xE29 JUMPI PUSH1 0x40 MLOAD PUSH32 0x8C379A000000000000000000000000000000000000000000000000000000000 DUP2 MSTORE PUSH1 0x4 ADD PUSH2 0xE20 SWAP1 PUSH2 0x15F6 JUMP JUMPDEST PUSH1 0x40 MLOAD DUP1 SWAP2 SUB SWAP1 REVERT JUMPDEST PUSH2 0xE55 PUSH32 0x1C87928E31B717B7582D854E205D35C9FFC84835632B94AC185A4802F649760 PUSH1 0x0 SHL PUSH2 0x11BB JUMP JUMPDEST PUSH2 0xE81 PUSH32 0x60A0A9863A927BBD6165A780CC3FDDE5E4688B37942B251A20707F222B64F401 PUSH1 0x0 SHL PUSH2 0x11BB JUMP JUMPDEST PUSH2 0xEAD PUSH32 0xB27BABF2DCB5B6C4A3B3C6E49A1ECEA280F648824F5ADF4AF7B4396BB705C29D PUSH1 0x0 SHL PUSH2 0x11BB JUMP JUMPDEST PUSH1 0x0 JUMPDEST DUP7 DUP7 SWAP1 POP DUP2 LT ISZERO PUSH2 0x118E JUMPI PUSH2 0xEE7 PUSH32 0x28A0068A98E4CE68AF7C58821F1A3953481B96B205EB06757E4C2AA444B321D4 PUSH1 0x0 SHL PUSH2 0x11BB JUMP JUMPDEST PUSH2 0xF13 PUSH32 0xAA8A93CABFB73A27828253CAB810033E1087530CC9D1D38A0790D99C52A89FCE PUSH1 0x0 SHL PUSH2 0x11BB JUMP JUMPDEST PUSH1 0x0 PUSH8 0xDE0B6B3A7640000 DUP7 DUP7 DUP5 DUP2 DUP2 LT PUSH2 0xF31 JUMPI PUSH2 0xF30 PUSH2 0x1616 JUMP JUMPDEST JUMPDEST SWAP1 POP PUSH1 0x20 MUL ADD CALLDATALOAD PUSH2 0xF42 SWAP2 SWAP1 PUSH2 0x167E JUMP JUMPDEST SWAP1 POP PUSH2 0xF70 PUSH32 0x473BC85CAED8D1027D3794AEA17C3163998B6896EB204DE6D843053F3CF2A08A PUSH1 0x0 SHL PUSH2 0x11BB JUMP JUMPDEST PUSH2 0xF9C PUSH32 0x9AB40FBFBF75CCC8007D86F487976546E1AE40666B1FAC02BE6B92114E2B0C9A PUSH1 0x0 SHL PUSH2 0x11BB JUMP JUMPDEST PUSH2 0xFC8 PUSH32 0xB366572D270969A5CC5E49955BAD24BB79AE621DB7CBF6D51A7339DB66A5B205 PUSH1 0x0 SHL PUSH2 0x11BB JUMP JUMPDEST PUSH1 0x0 DUP1 SLOAD SWAP1 PUSH2 0x100 EXP SWAP1 DIV PUSH20 0xFFFFFFFFFFFFFFFFFFFFFFFFFFFFFFFFFFFFFFFF AND PUSH20 0xFFFFFFFFFFFFFFFFFFFFFFFFFFFFFFFFFFFFFFFF AND PUSH4 0xA9059CBB DUP10 DUP10 DUP6 DUP2 DUP2 LT PUSH2 0x1017 JUMPI PUSH2 0x1016 PUSH2 0x1616 JUMP JUMPDEST JUMPDEST SWAP1 POP PUSH1 0x20 MUL ADD PUSH1 0x20 DUP2 ADD SWAP1 PUSH2 0x102C SWAP2 SWAP1 PUSH2 0x1226 JUMP JUMPDEST DUP4 PUSH1 0x40 MLOAD DUP4 PUSH4 0xFFFFFFFF AND PUSH1 0xE0 SHL DUP2 MSTORE PUSH1 0x4 ADD PUSH2 0x104A SWAP3 SWAP2 SWAP1 PUSH2 0x16F6 JUMP JUMPDEST PUSH1 0x20 PUSH1 0x40 MLOAD DUP1 DUP4 SUB DUP2 PUSH1 0x0 DUP8 GAS CALL ISZERO DUP1 ISZERO PUSH2 0x1069 JUMPI RETURNDATASIZE PUSH1 0x0 DUP1 RETURNDATACOPY RETURNDATASIZE PUSH1 0x0 REVERT JUMPDEST POP POP POP POP PUSH1 0x40 MLOAD RETURNDATASIZE PUSH1 0x1F NOT PUSH1 0x1F DUP3 ADD AND DUP3 ADD DUP1 PUSH1 0x40 MSTORE POP DUP2 ADD SWAP1 PUSH2 0x108D SWAP2 SWAP1 PUSH2 0x1757 JUMP JUMPDEST PUSH2 0x1096 JUMPI PUSH1 0x0 DUP1 REVERT JUMPDEST PUSH2 0x10C2 PUSH32 0xFABF7862D9A03C984D75FA9141141CDF188FB84EAC170133FBC727F133053796 PUSH1 0x0 SHL PUSH2 0x11BB JUMP JUMPDEST PUSH2 0x10EE PUSH32 0x2D4FF4BE0BF0D5AF482F1F63EA6557F93839AEC9DDE1667180B350C40F968CE2 PUSH1 0x0 SHL PUSH2 0x11BB JUMP JUMPDEST PUSH2 0x111A PUSH32 0x4793BD11DB294C80617044B86A106AA888854746E095019279688DC0BBB19608 PUSH1 0x0 SHL PUSH2 0x11BB JUMP JUMPDEST PUSH32 0x6979598CA4D86FB9B9FF448D56594C8A75674C28A0FD4D913B7E4D342F0CD6A0 DUP9 DUP9 DUP5 DUP2 DUP2 LT PUSH2 0x114E JUMPI PUSH2 0x114D PUSH2 0x1616 JUMP JUMPDEST JUMPDEST SWAP1 POP PUSH1 0x20 MUL ADD PUSH1 0x20 DUP2 ADD SWAP1 PUSH2 0x1163 SWAP2 SWAP1 PUSH2 0x1226 JUMP JUMPDEST DUP3 PUSH1 0x40 MLOAD PUSH2 0x1172 SWAP3 SWAP2 SWAP1 PUSH2 0x16F6 JUMP JUMPDEST PUSH1 0x40 MLOAD DUP1 SWAP2 SUB SWAP1 LOG1 POP DUP1 DUP1 PUSH2 0x1186 SWAP1 PUSH2 0x1784 JUMP JUMPDEST SWAP2 POP POP PUSH2 0xEB0 JUMP JUMPDEST POP POP POP POP POP POP POP JUMP JUMPDEST PUSH1 0x0 DUP1 SLOAD SWAP1 PUSH2 0x100 EXP SWAP1 DIV PUSH20 0xFFFFFFFFFFFFFFFFFFFFFFFFFFFFFFFFFFFFFFFF AND DUP2 JUMP JUMPDEST POP JUMP JUMPDEST PUSH1 0x0 DUP1 REVERT JUMPDEST PUSH1 0x0 DUP1 REVERT JUMPDEST PUSH1 0x0 PUSH20 0xFFFFFFFFFFFFFFFFFFFFFFFFFFFFFFFFFFFFFFFF DUP3 AND SWAP1 POP SWAP2 SWAP1 POP JUMP JUMPDEST PUSH1 0x0 PUSH2 0x11F3 DUP3 PUSH2 0x11C8 JUMP JUMPDEST SWAP1 POP SWAP2 SWAP1 POP JUMP JUMPDEST PUSH2 0x1203 DUP2 PUSH2 0x11E8 JUMP JUMPDEST DUP2 EQ PUSH2 0x120E JUMPI PUSH1 0x0 DUP1 REVERT JUMPDEST POP JUMP JUMPDEST PUSH1 0x0 DUP2 CALLDATALOAD SWAP1 POP PUSH2 0x1220 DUP2 PUSH2 0x11FA JUMP JUMPDEST SWAP3 SWAP2 POP POP JUMP JUMPDEST PUSH1 0x0 PUSH1 0x20 DUP3 DUP5 SUB SLT ISZERO PUSH2 0x123C JUMPI PUSH2 0x123B PUSH2 0x11BE JUMP JUMPDEST JUMPDEST PUSH1 0x0 PUSH2 0x124A DUP5 DUP3 DUP6 ADD PUSH2 0x1211 JUMP JUMPDEST SWAP2 POP POP SWAP3 SWAP2 POP POP JUMP JUMPDEST PUSH1 0x0 DUP1 REVERT JUMPDEST PUSH1 0x0 DUP1 REVERT JUMPDEST PUSH1 0x0 DUP1 REVERT JUMPDEST PUSH1 0x0 DUP1 DUP4 PUSH1 0x1F DUP5 ADD SLT PUSH2 0x1278 JUMPI PUSH2 0x1277 PUSH2 0x1253 JUMP JUMPDEST JUMPDEST DUP3 CALLDATALOAD SWAP1 POP PUSH8 0xFFFFFFFFFFFFFFFF DUP2 GT ISZERO PUSH2 0x1295 JUMPI PUSH2 0x1294 PUSH2 0x1258 JUMP JUMPDEST JUMPDEST PUSH1 0x20 DUP4 ADD SWAP2 POP DUP4 PUSH1 0x20 DUP3 MUL DUP4 ADD GT ISZERO PUSH2 0x12B1 JUMPI PUSH2 0x12B0 PUSH2 0x125D JUMP JUMPDEST JUMPDEST SWAP3 POP SWAP3 SWAP1 POP JUMP JUMPDEST PUSH1 0x0 DUP1 DUP4 PUSH1 0x1F DUP5 ADD SLT PUSH2 0x12CE JUMPI PUSH2 0x12CD PUSH2 0x1253 JUMP JUMPDEST JUMPDEST DUP3 CALLDATALOAD SWAP1 POP PUSH8 0xFFFFFFFFFFFFFFFF DUP2 GT ISZERO PUSH2 0x12EB JUMPI PUSH2 0x12EA PUSH2 0x1258 JUMP JUMPDEST JUMPDEST PUSH1 0x20 DUP4 ADD SWAP2 POP DUP4 PUSH1 0x20 DUP3 MUL DUP4 ADD GT ISZERO PUSH2 0x1307 JUMPI PUSH2 0x1306 PUSH2 0x125D JUMP JUMPDEST JUMPDEST SWAP3 POP SWAP3 SWAP1 POP JUMP JUMPDEST PUSH1 0x0 DUP1 PUSH1 0x0 DUP1 PUSH1 0x40 DUP6 DUP8 SUB SLT ISZERO PUSH2 0x1328 JUMPI PUSH2 0x1327 PUSH2 0x11BE JUMP JUMPDEST JUMPDEST PUSH1 0x0 DUP6 ADD CALLDATALOAD PUSH8 0xFFFFFFFFFFFFFFFF DUP2 GT ISZERO PUSH2 0x1346 JUMPI PUSH2 0x1345 PUSH2 0x11C3 JUMP JUMPDEST JUMPDEST PUSH2 0x1352 DUP8 DUP3 DUP9 ADD PUSH2 0x1262 JUMP JUMPDEST SWAP5 POP SWAP5 POP POP PUSH1 0x20 DUP6 ADD CALLDATALOAD PUSH8 0xFFFFFFFFFFFFFFFF DUP2 GT ISZERO PUSH2 0x1375 JUMPI PUSH2 0x1374 PUSH2 0x11C3 JUMP JUMPDEST JUMPDEST PUSH2 0x1381 DUP8 DUP3 DUP9 ADD PUSH2 0x12B8 JUMP JUMPDEST SWAP3 POP SWAP3 POP POP SWAP3 SWAP6 SWAP2 SWAP5 POP SWAP3 POP JUMP JUMPDEST PUSH1 0x0 DUP2 SWAP1 POP SWAP2 SWAP1 POP JUMP JUMPDEST PUSH1 0x0 PUSH2 0x13B4 PUSH2 0x13AF PUSH2 0x13AA DUP5 PUSH2 0x11C8 JUMP JUMPDEST PUSH2 0x138F JUMP JUMPDEST PUSH2 0x11C8 JUMP JUMPDEST SWAP1 POP SWAP2 SWAP1 POP JUMP JUMPDEST PUSH1 0x0 PUSH2 0x13C6 DUP3 PUSH2 0x1399 JUMP JUMPDEST SWAP1 POP SWAP2 SWAP1 POP JUMP JUMPDEST PUSH1 0x0 PUSH2 0x13D8 DUP3 PUSH2 0x13BB JUMP JUMPDEST SWAP1 POP SWAP2 SWAP1 POP JUMP JUMPDEST PUSH2 0x13E8 DUP2 PUSH2 0x13CD JUMP JUMPDEST DUP3 MSTORE POP POP JUMP JUMPDEST PUSH1 0x0 PUSH1 0x20 DUP3 ADD SWAP1 POP PUSH2 0x1403 PUSH1 0x0 DUP4 ADD DUP5 PUSH2 0x13DF JUMP JUMPDEST SWAP3 SWAP2 POP POP JUMP JUMPDEST PUSH1 0x0 DUP3 DUP3 MSTORE PUSH1 0x20 DUP3 ADD SWAP1 POP SWAP3 SWAP2 POP POP JUMP JUMPDEST PUSH32 0x4F6E6C792041646D696E20486173204163636573732100000000000000000000 PUSH1 0x0 DUP3 ADD MSTORE POP JUMP JUMPDEST PUSH1 0x0 PUSH2 0x1450 PUSH1 0x16 DUP4 PUSH2 0x1409 JUMP JUMPDEST SWAP2 POP PUSH2 0x145B DUP3 PUSH2 0x141A JUMP JUMPDEST PUSH1 0x20 DUP3 ADD SWAP1 POP SWAP2 SWAP1 POP JUMP JUMPDEST PUSH1 0x0 PUSH1 0x20 DUP3 ADD SWAP1 POP DUP2 DUP2 SUB PUSH1 0x0 DUP4 ADD MSTORE PUSH2 0x147F DUP2 PUSH2 0x1443 JUMP JUMPDEST SWAP1 POP SWAP2 SWAP1 POP JUMP JUMPDEST PUSH32 0x41646472657373206973206E6F7420616E2061646D696E2E0000000000000000 PUSH1 0x0 DUP3 ADD MSTORE POP JUMP JUMPDEST PUSH1 0x0 PUSH2 0x14BC PUSH1 0x18 DUP4 PUSH2 0x1409 JUMP JUMPDEST SWAP2 POP PUSH2 0x14C7 DUP3 PUSH2 0x1486 JUMP JUMPDEST PUSH1 0x20 DUP3 ADD SWAP1 POP SWAP2 SWAP1 POP JUMP JUMPDEST PUSH1 0x0 PUSH1 0x20 DUP3 ADD SWAP1 POP DUP2 DUP2 SUB PUSH1 0x0 DUP4 ADD MSTORE PUSH2 0x14EB DUP2 PUSH2 0x14AF JUMP JUMPDEST SWAP1 POP SWAP2 SWAP1 POP JUMP JUMPDEST PUSH32 0x4172726179204C656E67746873206D75737420626520657175616C2E00000000 PUSH1 0x0 DUP3 ADD MSTORE POP JUMP JUMPDEST PUSH1 0x0 PUSH2 0x1528 PUSH1 0x1C DUP4 PUSH2 0x1409 JUMP JUMPDEST SWAP2 POP PUSH2 0x1533 DUP3 PUSH2 0x14F2 JUMP JUMPDEST PUSH1 0x20 DUP3 ADD SWAP1 POP SWAP2 SWAP1 POP JUMP JUMPDEST PUSH1 0x0 PUSH1 0x20 DUP3 ADD SWAP1 POP DUP2 DUP2 SUB PUSH1 0x0 DUP4 ADD MSTORE PUSH2 0x1557 DUP2 PUSH2 0x151B JUMP JUMPDEST SWAP1 POP SWAP2 SWAP1 POP JUMP JUMPDEST PUSH32 0x736F7272792C206D6178696D756D206E756D626572206F662061646472657373 PUSH1 0x0 DUP3 ADD MSTORE PUSH32 0x6573206F6E2061206C6973742063616E6E6F74206265206D6F7265207468616E PUSH1 0x20 DUP3 ADD MSTORE PUSH32 0x2032303000000000000000000000000000000000000000000000000000000000 PUSH1 0x40 DUP3 ADD MSTORE POP JUMP JUMPDEST PUSH1 0x0 PUSH2 0x15E0 PUSH1 0x44 DUP4 PUSH2 0x1409 JUMP JUMPDEST SWAP2 POP PUSH2 0x15EB DUP3 PUSH2 0x155E JUMP JUMPDEST PUSH1 0x60 DUP3 ADD SWAP1 POP SWAP2 SWAP1 POP JUMP JUMPDEST PUSH1 0x0 PUSH1 0x20 DUP3 ADD SWAP1 POP DUP2 DUP2 SUB PUSH1 0x0 DUP4 ADD MSTORE PUSH2 0x160F DUP2 PUSH2 0x15D3 JUMP JUMPDEST SWAP1 POP SWAP2 SWAP1 POP JUMP JUMPDEST PUSH32 0x4E487B7100000000000000000000000000000000000000000000000000000000 PUSH1 0x0 MSTORE PUSH1 0x32 PUSH1 0x4 MSTORE PUSH1 0x24 PUSH1 0x0 REVERT JUMPDEST PUSH1 0x0 DUP2 SWAP1 POP SWAP2 SWAP1 POP JUMP JUMPDEST PUSH32 0x4E487B7100000000000000000000000000000000000000000000000000000000 PUSH1 0x0 MSTORE PUSH1 0x11 PUSH1 0x4 MSTORE PUSH1 0x24 PUSH1 0x0 REVERT JUMPDEST PUSH1 0x0 PUSH2 0x1689 DUP3 PUSH2 0x1645 JUMP JUMPDEST SWAP2 POP PUSH2 0x1694 DUP4 PUSH2 0x1645 JUMP JUMPDEST SWAP3 POP DUP2 PUSH32 0xFFFFFFFFFFFFFFFFFFFFFFFFFFFFFFFFFFFFFFFFFFFFFFFFFFFFFFFFFFFFFFFF DIV DUP4 GT DUP3 ISZERO ISZERO AND ISZERO PUSH2 0x16CD JUMPI PUSH2 0x16CC PUSH2 0x164F JUMP JUMPDEST JUMPDEST DUP3 DUP3 MUL SWAP1 POP SWAP3 SWAP2 POP POP JUMP JUMPDEST PUSH2 0x16E1 DUP2 PUSH2 0x11E8 JUMP JUMPDEST DUP3 MSTORE POP POP JUMP JUMPDEST PUSH2 0x16F0 DUP2 PUSH2 0x1645 JUMP JUMPDEST DUP3 MSTORE POP POP JUMP JUMPDEST PUSH1 0x0 PUSH1 0x40 DUP3 ADD SWAP1 POP PUSH2 0x170B PUSH1 0x0 DUP4 ADD DUP6 PUSH2 0x16D8 JUMP JUMPDEST PUSH2 0x1718 PUSH1 0x20 DUP4 ADD DUP5 PUSH2 0x16E7 JUMP JUMPDEST SWAP4 SWAP3 POP POP POP JUMP JUMPDEST PUSH1 0x0 DUP2 ISZERO ISZERO SWAP1 POP SWAP2 SWAP1 POP JUMP JUMPDEST PUSH2 0x1734 DUP2 PUSH2 0x171F JUMP JUMPDEST DUP2 EQ PUSH2 0x173F JUMPI PUSH1 0x0 DUP1 REVERT JUMPDEST POP JUMP JUMPDEST PUSH1 0x0 DUP2 MLOAD SWAP1 POP PUSH2 0x1751 DUP2 PUSH2 0x172B JUMP JUMPDEST SWAP3 SWAP2 POP POP JUMP JUMPDEST PUSH1 0x0 PUSH1 0x20 DUP3 DUP5 SUB SLT ISZERO PUSH2 0x176D JUMPI PUSH2 0x176C PUSH2 0x11BE JUMP JUMPDEST JUMPDEST PUSH1 0x0 PUSH2 0x177B DUP5 DUP3 DUP6 ADD PUSH2 0x1742 JUMP JUMPDEST SWAP2 POP POP SWAP3 SWAP2 POP POP JUMP JUMPDEST PUSH1 0x0 PUSH2 0x178F DUP3 PUSH2 0x1645 JUMP JUMPDEST SWAP2 POP PUSH32 0xFFFFFFFFFFFFFFFFFFFFFFFFFFFFFFFFFFFFFFFFFFFFFFFFFFFFFFFFFFFFFFFF DUP3 EQ ISZERO PUSH2 0x17C2 JUMPI PUSH2 0x17C1 PUSH2 0x164F JUMP JUMPDEST JUMPDEST PUSH1 0x1 DUP3 ADD SWAP1 POP SWAP2 SWAP1 POP JUMP INVALID LOG2 PUSH5 0x6970667358 0x22 SLT KECCAK256 SWAP16 0xE5 0xBA CALLCODE 0xD4 0xE4 0xC0 PUSH30 0x3946F9CE9EB426CCE5A1748D589E3DF5414C3E5EC4AEA07764736F6C6343 STOP ADDMOD EXP STOP CALLER "
        },
        "methodIdentifiers": {
          "airdrop(address[],uint256[])": "67243482",
          "assignAdmin(address)": "3da7d2ed",
          "kill()": "41c0e1b5",
          "removeAdmin(address)": "1785f53c",
          "token()": "fc0c546a"
        }
      }
    }
  }
}