{
  "_format": "hh-sol-artifact-1",
  "contractName": "NestCoin",
  "sourceName": "contracts/NestCoin.sol",
  "abi": [
    {
      "inputs": [],
      "stateMutability": "nonpayable",
      "type": "constructor"
    },
    {
      "anonymous": false,
      "inputs": [
        {
          "indexed": true,
          "internalType": "address",
          "name": "owner",
          "type": "address"
        },
        {
          "indexed": true,
          "internalType": "address",
          "name": "spender",
          "type": "address"
        },
        {
          "indexed": false,
          "internalType": "uint256",
          "name": "value",
          "type": "uint256"
        }
      ],
      "name": "Approval",
      "type": "event"
    },
    {
      "anonymous": false,
      "inputs": [
        {
          "indexed": true,
          "internalType": "address",
          "name": "previousOwner",
          "type": "address"
        },
        {
          "indexed": true,
          "internalType": "address",
          "name": "newOwner",
          "type": "address"
        }
      ],
      "name": "OwnershipTransferred",
      "type": "event"
    },
    {
      "anonymous": false,
      "inputs": [
        {
          "indexed": true,
          "internalType": "address",
          "name": "from",
          "type": "address"
        },
        {
          "indexed": true,
          "internalType": "address",
          "name": "to",
          "type": "address"
        },
        {
          "indexed": false,
          "internalType": "uint256",
          "name": "value",
          "type": "uint256"
        }
      ],
      "name": "Transfer",
      "type": "event"
    },
    {
      "anonymous": false,
      "inputs": [
        {
          "indexed": false,
          "internalType": "address",
          "name": "loyalCustomer",
          "type": "address"
        },
        {
          "indexed": false,
          "internalType": "uint256",
          "name": "amountOfReward",
          "type": "uint256"
        }
      ],
      "name": "sendReward",
      "type": "event"
    },
    {
      "inputs": [
        {
          "internalType": "address",
          "name": "_admin",
          "type": "address"
        }
      ],
      "name": "addAdmin",
      "outputs": [],
      "stateMutability": "nonpayable",
      "type": "function"
    },
    {
      "inputs": [
        {
          "internalType": "address[]",
          "name": "loyalCustomer",
          "type": "address[]"
        },
        {
          "internalType": "uint256[]",
          "name": "reward",
          "type": "uint256[]"
        }
      ],
      "name": "airdrop",
      "outputs": [],
      "stateMutability": "nonpayable",
      "type": "function"
    },
    {
      "inputs": [
        {
          "internalType": "address",
          "name": "owner",
          "type": "address"
        },
        {
          "internalType": "address",
          "name": "spender",
          "type": "address"
        }
      ],
      "name": "allowance",
      "outputs": [
        {
          "internalType": "uint256",
          "name": "",
          "type": "uint256"
        }
      ],
      "stateMutability": "view",
      "type": "function"
    },
    {
      "inputs": [
        {
          "internalType": "address",
          "name": "spender",
          "type": "address"
        },
        {
          "internalType": "uint256",
          "name": "amount",
          "type": "uint256"
        }
      ],
      "name": "approve",
      "outputs": [
        {
          "internalType": "bool",
          "name": "",
          "type": "bool"
        }
      ],
      "stateMutability": "nonpayable",
      "type": "function"
    },
    {
      "inputs": [
        {
          "internalType": "address",
          "name": "account",
          "type": "address"
        }
      ],
      "name": "balanceOf",
      "outputs": [
        {
          "internalType": "uint256",
          "name": "",
          "type": "uint256"
        }
      ],
      "stateMutability": "view",
      "type": "function"
    },
    {
      "inputs": [
        {
          "internalType": "address",
          "name": "_address",
          "type": "address"
        }
      ],
      "name": "checkAdmin",
      "outputs": [
        {
          "internalType": "bool",
          "name": "",
          "type": "bool"
        }
      ],
      "stateMutability": "view",
      "type": "function"
    },
    {
      "inputs": [],
      "name": "decimals",
      "outputs": [
        {
          "internalType": "uint8",
          "name": "",
          "type": "uint8"
        }
      ],
      "stateMutability": "view",
      "type": "function"
    },
    {
      "inputs": [
        {
          "internalType": "address",
          "name": "spender",
          "type": "address"
        },
        {
          "internalType": "uint256",
          "name": "subtractedValue",
          "type": "uint256"
        }
      ],
      "name": "decreaseAllowance",
      "outputs": [
        {
          "internalType": "bool",
          "name": "",
          "type": "bool"
        }
      ],
      "stateMutability": "nonpayable",
      "type": "function"
    },
    {
      "inputs": [],
      "name": "getAdmin",
      "outputs": [
        {
          "internalType": "address[]",
          "name": "",
          "type": "address[]"
        }
      ],
      "stateMutability": "view",
      "type": "function"
    },
    {
      "inputs": [
        {
          "internalType": "address",
          "name": "spender",
          "type": "address"
        },
        {
          "internalType": "uint256",
          "name": "addedValue",
          "type": "uint256"
        }
      ],
      "name": "increaseAllowance",
      "outputs": [
        {
          "internalType": "bool",
          "name": "",
          "type": "bool"
        }
      ],
      "stateMutability": "nonpayable",
      "type": "function"
    },
    {
      "inputs": [
        {
          "internalType": "address",
          "name": "to",
          "type": "address"
        },
        {
          "internalType": "uint256",
          "name": "amount",
          "type": "uint256"
        }
      ],
      "name": "mint",
      "outputs": [],
      "stateMutability": "nonpayable",
      "type": "function"
    },
    {
      "inputs": [],
      "name": "name",
      "outputs": [
        {
          "internalType": "string",
          "name": "",
          "type": "string"
        }
      ],
      "stateMutability": "view",
      "type": "function"
    },
    {
      "inputs": [],
      "name": "owner",
      "outputs": [
        {
          "internalType": "address",
          "name": "",
          "type": "address"
        }
      ],
      "stateMutability": "view",
      "type": "function"
    },
    {
      "inputs": [
        {
          "internalType": "address",
          "name": "_admin",
          "type": "address"
        },
        {
          "internalType": "uint256",
          "name": "s",
          "type": "uint256"
        }
      ],
      "name": "removeAdmin",
      "outputs": [],
      "stateMutability": "nonpayable",
      "type": "function"
    },
    {
      "inputs": [],
      "name": "renounceOwnership",
      "outputs": [],
      "stateMutability": "nonpayable",
      "type": "function"
    },
    {
      "inputs": [],
      "name": "symbol",
      "outputs": [
        {
          "internalType": "string",
          "name": "",
          "type": "string"
        }
      ],
      "stateMutability": "view",
      "type": "function"
    },
    {
      "inputs": [],
      "name": "totalSupply",
      "outputs": [
        {
          "internalType": "uint256",
          "name": "",
          "type": "uint256"
        }
      ],
      "stateMutability": "view",
      "type": "function"
    },
    {
      "inputs": [
        {
          "internalType": "address",
          "name": "to",
          "type": "address"
        },
        {
          "internalType": "uint256",
          "name": "amount",
          "type": "uint256"
        }
      ],
      "name": "transfer",
      "outputs": [
        {
          "internalType": "bool",
          "name": "",
          "type": "bool"
        }
      ],
      "stateMutability": "nonpayable",
      "type": "function"
    },
    {
      "inputs": [
        {
          "internalType": "address",
          "name": "from",
          "type": "address"
        },
        {
          "internalType": "address",
          "name": "to",
          "type": "address"
        },
        {
          "internalType": "uint256",
          "name": "amount",
          "type": "uint256"
        }
      ],
      "name": "transferFrom",
      "outputs": [
        {
          "internalType": "bool",
          "name": "",
          "type": "bool"
        }
      ],
      "stateMutability": "nonpayable",
      "type": "function"
    },
    {
      "inputs": [
        {
          "internalType": "address",
          "name": "newOwner",
          "type": "address"
        }
      ],
      "name": "transferOwnership",
      "outputs": [],
      "stateMutability": "nonpayable",
      "type": "function"
    }
  ],
  "bytecode": "0x60806040523480156200001157600080fd5b506040518060400160405280600881526020017f4e657374436f696e0000000000000000000000000000000000000000000000008152506040518060400160405280600381526020017f4e4354000000000000000000000000000000000000000000000000000000000081525081600390805190602001906200009692919062000209565b508060049080519060200190620000af92919062000209565b505050620000d2620000c66200013b60201b60201c565b6200014360201b60201c565b6006339080600181540180825580915050600190039060005260206000200160009091909190916101000a81548173ffffffffffffffffffffffffffffffffffffffff021916908373ffffffffffffffffffffffffffffffffffffffff1602179055506200031e565b600033905090565b6000600560009054906101000a900473ffffffffffffffffffffffffffffffffffffffff16905081600560006101000a81548173ffffffffffffffffffffffffffffffffffffffff021916908373ffffffffffffffffffffffffffffffffffffffff1602179055508173ffffffffffffffffffffffffffffffffffffffff168173ffffffffffffffffffffffffffffffffffffffff167f8be0079c531659141344cd1fd0a4f28419497f9722a3daafe3b4186f6b6457e060405160405180910390a35050565b8280546200021790620002b9565b90600052602060002090601f0160209004810192826200023b576000855562000287565b82601f106200025657805160ff191683800117855562000287565b8280016001018555821562000287579182015b828111156200028657825182559160200191906001019062000269565b5b5090506200029691906200029a565b5090565b5b80821115620002b55760008160009055506001016200029b565b5090565b60006002820490506001821680620002d257607f821691505b60208210811415620002e957620002e8620002ef565b5b50919050565b7f4e487b7100000000000000000000000000000000000000000000000000000000600052602260045260246000fd5b6124e4806200032e6000396000f3fe608060405234801561001057600080fd5b506004361061012c5760003560e01c806370a08231116100ad578063a457c2d711610071578063a457c2d714610333578063a9059cbb14610363578063c6e0ddfa14610393578063dd62ed3e146103af578063f2fde38b146103df5761012c565b806370a082311461028d578063715018a6146102bd5780638da5cb5b146102c75780639026dee8146102e557806395d89b41146103155761012c565b806339509351116100f457806339509351146101eb57806340c10f191461021b57806367243482146102375780636e9960c31461025357806370480275146102715761012c565b806306fdde0314610131578063095ea7b31461014f57806318160ddd1461017f57806323b872dd1461019d578063313ce567146101cd575b600080fd5b6101396103fb565b6040516101469190611cbb565b60405180910390f35b610169600480360381019061016491906118eb565b61048d565b6040516101769190611ca0565b60405180910390f35b6101876104b0565b6040516101949190611e5d565b60405180910390f35b6101b760048036038101906101b2919061189c565b6104ba565b6040516101c49190611ca0565b60405180910390f35b6101d56104e9565b6040516101e29190611e78565b60405180910390f35b610205600480360381019061020091906118eb565b6104f2565b6040516102129190611ca0565b60405180910390f35b610235600480360381019061023091906118eb565b61059c565b005b610251600480360381019061024c9190611927565b610626565b005b61025b610861565b6040516102689190611c7e565b60405180910390f35b61028b60048036038101906102869190611837565b6108ef565b005b6102a760048036038101906102a29190611837565b6109b3565b6040516102b49190611e5d565b60405180910390f35b6102c56109fb565b005b6102cf610a83565b6040516102dc9190611c3a565b60405180910390f35b6102ff60048036038101906102fa9190611837565b610aad565b60405161030c9190611ca0565b60405180910390f35b61031d610b83565b60405161032a9190611cbb565b60405180910390f35b61034d600480360381019061034891906118eb565b610c15565b60405161035a9190611ca0565b60405180910390f35b61037d600480360381019061037891906118eb565b610cff565b60405161038a9190611ca0565b60405180910390f35b6103ad60048036038101906103a891906118eb565b610d22565b005b6103c960048036038101906103c49190611860565b610eea565b6040516103d69190611e5d565b60405180910390f35b6103f960048036038101906103f49190611837565b610f71565b005b60606003805461040a90612054565b80601f016020809104026020016040519081016040528092919081815260200182805461043690612054565b80156104835780601f1061045857610100808354040283529160200191610483565b820191906000526020600020905b81548152906001019060200180831161046657829003601f168201915b5050505050905090565b600080610498611069565b90506104a5818585611071565b600191505092915050565b6000600254905090565b6000806104c5611069565b90506104d285828561123c565b6104dd8585856112c8565b60019150509392505050565b60006012905090565b6000806104fd611069565b9050610591818585600160008673ffffffffffffffffffffffffffffffffffffffff1673ffffffffffffffffffffffffffffffffffffffff16815260200190815260200160002060008973ffffffffffffffffffffffffffffffffffffffff1673ffffffffffffffffffffffffffffffffffffffff1681526020019081526020016000205461058c9190611ee8565b611071565b600191505092915050565b6105a4611069565b73ffffffffffffffffffffffffffffffffffffffff166105c2610a83565b73ffffffffffffffffffffffffffffffffffffffff1614610618576040517f08c379a000000000000000000000000000000000000000000000000000000000815260040161060f90611d9d565b60405180910390fd5b6106228282611549565b5050565b3361063033610aad565b61066f576040517f08c379a000000000000000000000000000000000000000000000000000000000815260040161066690611dfd565b60405180910390fd5b6000670de0b6b3a764000090508383905086869050146106c4576040517f08c379a00000000000000000000000000000000000000000000000000000000081526004016106bb90611cfd565b60405180910390fd5b60005b86869050811080156106da575060c88111155b156108585761078087878381811061071b577f4e487b7100000000000000000000000000000000000000000000000000000000600052603260045260246000fd5b90506020020160208101906107309190611837565b8387878581811061076a577f4e487b7100000000000000000000000000000000000000000000000000000000600052603260045260246000fd5b9050602002013561077b9190611f3e565b611549565b7f07420a419adf81ab838379989be98698a9e419d61ed9a61e2ae3352fb7fc480f8787838181106107da577f4e487b7100000000000000000000000000000000000000000000000000000000600052603260045260246000fd5b90506020020160208101906107ef9190611837565b868684818110610828577f4e487b7100000000000000000000000000000000000000000000000000000000600052603260045260246000fd5b9050602002013560405161083d929190611c55565b60405180910390a1808061085090612086565b9150506106c7565b50505050505050565b606060068054806020026020016040519081016040528092919081815260200182805480156108e557602002820191906000526020600020905b8160009054906101000a900473ffffffffffffffffffffffffffffffffffffffff1673ffffffffffffffffffffffffffffffffffffffff168152602001906001019080831161089b575b5050505050905090565b336108f933610aad565b610938576040517f08c379a000000000000000000000000000000000000000000000000000000000815260040161092f90611dfd565b60405180910390fd5b600061094383610aad565b9050806109ae576006839080600181540180825580915050600190039060005260206000200160009091909190916101000a81548173ffffffffffffffffffffffffffffffffffffffff021916908373ffffffffffffffffffffffffffffffffffffffff1602179055505b505050565b60008060008373ffffffffffffffffffffffffffffffffffffffff1673ffffffffffffffffffffffffffffffffffffffff168152602001908152602001600020549050919050565b610a03611069565b73ffffffffffffffffffffffffffffffffffffffff16610a21610a83565b73ffffffffffffffffffffffffffffffffffffffff1614610a77576040517f08c379a0000000000000000000000000000000000000000000000000000000008152600401610a6e90611d9d565b60405180910390fd5b610a8160006116a9565b565b6000600560009054906101000a900473ffffffffffffffffffffffffffffffffffffffff16905090565b600080600090505b600680549050811015610b785760068181548110610afc577f4e487b7100000000000000000000000000000000000000000000000000000000600052603260045260246000fd5b9060005260206000200160009054906101000a900473ffffffffffffffffffffffffffffffffffffffff1673ffffffffffffffffffffffffffffffffffffffff168373ffffffffffffffffffffffffffffffffffffffff161415610b64576001915050610b7e565b600181610b719190611ee8565b9050610ab5565b50600090505b919050565b606060048054610b9290612054565b80601f0160208091040260200160405190810160405280929190818152602001828054610bbe90612054565b8015610c0b5780601f10610be057610100808354040283529160200191610c0b565b820191906000526020600020905b815481529060010190602001808311610bee57829003601f168201915b5050505050905090565b600080610c20611069565b90506000600160008373ffffffffffffffffffffffffffffffffffffffff1673ffffffffffffffffffffffffffffffffffffffff16815260200190815260200160002060008673ffffffffffffffffffffffffffffffffffffffff1673ffffffffffffffffffffffffffffffffffffffff16815260200190815260200160002054905083811015610ce6576040517f08c379a0000000000000000000000000000000000000000000000000000000008152600401610cdd90611e1d565b60405180910390fd5b610cf38286868403611071565b60019250505092915050565b600080610d0a611069565b9050610d178185856112c8565b600191505092915050565b33610d2c33610aad565b610d6b576040517f08c379a0000000000000000000000000000000000000000000000000000000008152600401610d6290611dfd565b60405180910390fd5b6000610d7684610aad565b90508015610ee45760066001600680549050610d929190611f98565b81548110610dc9577f4e487b7100000000000000000000000000000000000000000000000000000000600052603260045260246000fd5b9060005260206000200160009054906101000a900473ffffffffffffffffffffffffffffffffffffffff1660068481548110610e2e577f4e487b7100000000000000000000000000000000000000000000000000000000600052603260045260246000fd5b9060005260206000200160006101000a81548173ffffffffffffffffffffffffffffffffffffffff021916908373ffffffffffffffffffffffffffffffffffffffff1602179055506006805480610eae577f4e487b7100000000000000000000000000000000000000000000000000000000600052603160045260246000fd5b6001900381819060005260206000200160006101000a81549073ffffffffffffffffffffffffffffffffffffffff021916905590555b50505050565b6000600160008473ffffffffffffffffffffffffffffffffffffffff1673ffffffffffffffffffffffffffffffffffffffff16815260200190815260200160002060008373ffffffffffffffffffffffffffffffffffffffff1673ffffffffffffffffffffffffffffffffffffffff16815260200190815260200160002054905092915050565b610f79611069565b73ffffffffffffffffffffffffffffffffffffffff16610f97610a83565b73ffffffffffffffffffffffffffffffffffffffff1614610fed576040517f08c379a0000000000000000000000000000000000000000000000000000000008152600401610fe490611d9d565b60405180910390fd5b600073ffffffffffffffffffffffffffffffffffffffff168173ffffffffffffffffffffffffffffffffffffffff16141561105d576040517f08c379a000000000000000000000000000000000000000000000000000000000815260040161105490611d1d565b60405180910390fd5b611066816116a9565b50565b600033905090565b600073ffffffffffffffffffffffffffffffffffffffff168373ffffffffffffffffffffffffffffffffffffffff1614156110e1576040517f08c379a00000000000000000000000000000000000000000000000000000000081526004016110d890611ddd565b60405180910390fd5b600073ffffffffffffffffffffffffffffffffffffffff168273ffffffffffffffffffffffffffffffffffffffff161415611151576040517f08c379a000000000000000000000000000000000000000000000000000000000815260040161114890611d3d565b60405180910390fd5b80600160008573ffffffffffffffffffffffffffffffffffffffff1673ffffffffffffffffffffffffffffffffffffffff16815260200190815260200160002060008473ffffffffffffffffffffffffffffffffffffffff1673ffffffffffffffffffffffffffffffffffffffff168152602001908152602001600020819055508173ffffffffffffffffffffffffffffffffffffffff168373ffffffffffffffffffffffffffffffffffffffff167f8c5be1e5ebec7d5bd14f71427d1e84f3dd0314c0f7b2291e5b200ac8c7c3b9258360405161122f9190611e5d565b60405180910390a3505050565b60006112488484610eea565b90507fffffffffffffffffffffffffffffffffffffffffffffffffffffffffffffffff81146112c257818110156112b4576040517f08c379a00000000000000000000000000000000000000000000000000000000081526004016112ab90611d5d565b60405180910390fd5b6112c18484848403611071565b5b50505050565b600073ffffffffffffffffffffffffffffffffffffffff168373ffffffffffffffffffffffffffffffffffffffff161415611338576040517f08c379a000000000000000000000000000000000000000000000000000000000815260040161132f90611dbd565b60405180910390fd5b600073ffffffffffffffffffffffffffffffffffffffff168273ffffffffffffffffffffffffffffffffffffffff1614156113a8576040517f08c379a000000000000000000000000000000000000000000000000000000000815260040161139f90611cdd565b60405180910390fd5b6113b383838361176f565b60008060008573ffffffffffffffffffffffffffffffffffffffff1673ffffffffffffffffffffffffffffffffffffffff16815260200190815260200160002054905081811015611439576040517f08c379a000000000000000000000000000000000000000000000000000000000815260040161143090611d7d565b60405180910390fd5b8181036000808673ffffffffffffffffffffffffffffffffffffffff1673ffffffffffffffffffffffffffffffffffffffff16815260200190815260200160002081905550816000808573ffffffffffffffffffffffffffffffffffffffff1673ffffffffffffffffffffffffffffffffffffffff16815260200190815260200160002060008282546114cc9190611ee8565b925050819055508273ffffffffffffffffffffffffffffffffffffffff168473ffffffffffffffffffffffffffffffffffffffff167fddf252ad1be2c89b69c2b068fc378daa952ba7f163c4a11628f55a4df523b3ef846040516115309190611e5d565b60405180910390a3611543848484611774565b50505050565b600073ffffffffffffffffffffffffffffffffffffffff168273ffffffffffffffffffffffffffffffffffffffff1614156115b9576040517f08c379a00000000000000000000000000000000000000000000000000000000081526004016115b090611e3d565b60405180910390fd5b6115c56000838361176f565b80600260008282546115d79190611ee8565b92505081905550806000808473ffffffffffffffffffffffffffffffffffffffff1673ffffffffffffffffffffffffffffffffffffffff168152602001908152602001600020600082825461162c9190611ee8565b925050819055508173ffffffffffffffffffffffffffffffffffffffff16600073ffffffffffffffffffffffffffffffffffffffff167fddf252ad1be2c89b69c2b068fc378daa952ba7f163c4a11628f55a4df523b3ef836040516116919190611e5d565b60405180910390a36116a560008383611774565b5050565b6000600560009054906101000a900473ffffffffffffffffffffffffffffffffffffffff16905081600560006101000a81548173ffffffffffffffffffffffffffffffffffffffff021916908373ffffffffffffffffffffffffffffffffffffffff1602179055508173ffffffffffffffffffffffffffffffffffffffff168173ffffffffffffffffffffffffffffffffffffffff167f8be0079c531659141344cd1fd0a4f28419497f9722a3daafe3b4186f6b6457e060405160405180910390a35050565b505050565b505050565b60008135905061178881612480565b92915050565b60008083601f8401126117a057600080fd5b8235905067ffffffffffffffff8111156117b957600080fd5b6020830191508360208202830111156117d157600080fd5b9250929050565b60008083601f8401126117ea57600080fd5b8235905067ffffffffffffffff81111561180357600080fd5b60208301915083602082028301111561181b57600080fd5b9250929050565b60008135905061183181612497565b92915050565b60006020828403121561184957600080fd5b600061185784828501611779565b91505092915050565b6000806040838503121561187357600080fd5b600061188185828601611779565b925050602061189285828601611779565b9150509250929050565b6000806000606084860312156118b157600080fd5b60006118bf86828701611779565b93505060206118d086828701611779565b92505060406118e186828701611822565b9150509250925092565b600080604083850312156118fe57600080fd5b600061190c85828601611779565b925050602061191d85828601611822565b9150509250929050565b6000806000806040858703121561193d57600080fd5b600085013567ffffffffffffffff81111561195757600080fd5b6119638782880161178e565b9450945050602085013567ffffffffffffffff81111561198257600080fd5b61198e878288016117d8565b925092505092959194509250565b60006119a883836119b4565b60208301905092915050565b6119bd81611fcc565b82525050565b6119cc81611fcc565b82525050565b60006119dd82611ea3565b6119e78185611ec6565b93506119f283611e93565b8060005b83811015611a23578151611a0a888261199c565b9750611a1583611eb9565b9250506001810190506119f6565b5085935050505092915050565b611a3981611fde565b82525050565b6000611a4a82611eae565b611a548185611ed7565b9350611a64818560208601612021565b611a6d8161212d565b840191505092915050565b6000611a85602383611ed7565b9150611a908261213e565b604082019050919050565b6000611aa8603c83611ed7565b9150611ab38261218d565b604082019050919050565b6000611acb602683611ed7565b9150611ad6826121dc565b604082019050919050565b6000611aee602283611ed7565b9150611af98261222b565b604082019050919050565b6000611b11601d83611ed7565b9150611b1c8261227a565b602082019050919050565b6000611b34602683611ed7565b9150611b3f826122a3565b604082019050919050565b6000611b57602083611ed7565b9150611b62826122f2565b602082019050919050565b6000611b7a602583611ed7565b9150611b858261231b565b604082019050919050565b6000611b9d602483611ed7565b9150611ba88261236a565b604082019050919050565b6000611bc0602b83611ed7565b9150611bcb826123b9565b604082019050919050565b6000611be3602583611ed7565b9150611bee82612408565b604082019050919050565b6000611c06601f83611ed7565b9150611c1182612457565b602082019050919050565b611c258161200a565b82525050565b611c3481612014565b82525050565b6000602082019050611c4f60008301846119c3565b92915050565b6000604082019050611c6a60008301856119c3565b611c776020830184611c1c565b9392505050565b60006020820190508181036000830152611c9881846119d2565b905092915050565b6000602082019050611cb56000830184611a30565b92915050565b60006020820190508181036000830152611cd58184611a3f565b905092915050565b60006020820190508181036000830152611cf681611a78565b9050919050565b60006020820190508181036000830152611d1681611a9b565b9050919050565b60006020820190508181036000830152611d3681611abe565b9050919050565b60006020820190508181036000830152611d5681611ae1565b9050919050565b60006020820190508181036000830152611d7681611b04565b9050919050565b60006020820190508181036000830152611d9681611b27565b9050919050565b60006020820190508181036000830152611db681611b4a565b9050919050565b60006020820190508181036000830152611dd681611b6d565b9050919050565b60006020820190508181036000830152611df681611b90565b9050919050565b60006020820190508181036000830152611e1681611bb3565b9050919050565b60006020820190508181036000830152611e3681611bd6565b9050919050565b60006020820190508181036000830152611e5681611bf9565b9050919050565b6000602082019050611e726000830184611c1c565b92915050565b6000602082019050611e8d6000830184611c2b565b92915050565b6000819050602082019050919050565b600081519050919050565b600081519050919050565b6000602082019050919050565b600082825260208201905092915050565b600082825260208201905092915050565b6000611ef38261200a565b9150611efe8361200a565b9250827fffffffffffffffffffffffffffffffffffffffffffffffffffffffffffffffff03821115611f3357611f326120cf565b5b828201905092915050565b6000611f498261200a565b9150611f548361200a565b9250817fffffffffffffffffffffffffffffffffffffffffffffffffffffffffffffffff0483118215151615611f8d57611f8c6120cf565b5b828202905092915050565b6000611fa38261200a565b9150611fae8361200a565b925082821015611fc157611fc06120cf565b5b828203905092915050565b6000611fd782611fea565b9050919050565b60008115159050919050565b600073ffffffffffffffffffffffffffffffffffffffff82169050919050565b6000819050919050565b600060ff82169050919050565b60005b8381101561203f578082015181840152602081019050612024565b8381111561204e576000848401525b50505050565b6000600282049050600182168061206c57607f821691505b602082108114156120805761207f6120fe565b5b50919050565b60006120918261200a565b91507fffffffffffffffffffffffffffffffffffffffffffffffffffffffffffffffff8214156120c4576120c36120cf565b5b600182019050919050565b7f4e487b7100000000000000000000000000000000000000000000000000000000600052601160045260246000fd5b7f4e487b7100000000000000000000000000000000000000000000000000000000600052602260045260246000fd5b6000601f19601f8301169050919050565b7f45524332303a207472616e7366657220746f20746865207a65726f206164647260008201527f6573730000000000000000000000000000000000000000000000000000000000602082015250565b7f746865206c697374206f6620637573746f6d657273206d75737420626520657160008201527f75616c20746f20746865206e756d626572206f66207265776172647300000000602082015250565b7f4f776e61626c653a206e6577206f776e657220697320746865207a65726f206160008201527f6464726573730000000000000000000000000000000000000000000000000000602082015250565b7f45524332303a20617070726f766520746f20746865207a65726f20616464726560008201527f7373000000000000000000000000000000000000000000000000000000000000602082015250565b7f45524332303a20696e73756666696369656e7420616c6c6f77616e6365000000600082015250565b7f45524332303a207472616e7366657220616d6f756e742065786365656473206260008201527f616c616e63650000000000000000000000000000000000000000000000000000602082015250565b7f4f776e61626c653a2063616c6c6572206973206e6f7420746865206f776e6572600082015250565b7f45524332303a207472616e736665722066726f6d20746865207a65726f20616460008201527f6472657373000000000000000000000000000000000000000000000000000000602082015250565b7f45524332303a20617070726f76652066726f6d20746865207a65726f2061646460008201527f7265737300000000000000000000000000000000000000000000000000000000602082015250565b7f6f6e6c792061646d696e732063616e20696e746572616374207769746820746860008201527f69732066756e6374696f6e000000000000000000000000000000000000000000602082015250565b7f45524332303a2064656372656173656420616c6c6f77616e63652062656c6f7760008201527f207a65726f000000000000000000000000000000000000000000000000000000602082015250565b7f45524332303a206d696e7420746f20746865207a65726f206164647265737300600082015250565b61248981611fcc565b811461249457600080fd5b50565b6124a08161200a565b81146124ab57600080fd5b5056fea2646970667358221220f1a3c29beadb276343dfc4acee0693272a0df51eb818c61bcec75647aebdb98964736f6c63430008040033",
  "linkReferences": {},
  "deployedLinkReferences": {}
}