{
  "_format": "hh-sol-artifact-1",
  "contractName": "Nestdrop",
  "sourceName": "contracts/Nestdrop.sol",
  "abi": [
    {
      "inputs": [
        {
          "internalType": "address",
          "name": "_NestCoin",
          "type": "address"
        }
      ],
      "stateMutability": "nonpayable",
      "type": "constructor"
    },
    {
      "anonymous": false,
      "inputs": [
        {
          "indexed": false,
          "internalType": "address",
          "name": "customer",
          "type": "address"
        },
        {
          "indexed": false,
          "internalType": "uint256",
          "name": "amount",
          "type": "uint256"
        }
      ],
      "name": "Dispatched",
      "type": "event"
    },
    {
      "inputs": [
        {
          "internalType": "address[]",
          "name": "_address",
          "type": "address[]"
        },
        {
          "internalType": "uint256[]",
          "name": "_rewards",
          "type": "uint256[]"
        }
      ],
      "name": "airdrop",
      "outputs": [],
      "stateMutability": "nonpayable",
      "type": "function"
    },
    {
      "inputs": [
        {
          "internalType": "address",
          "name": "_newAdmin",
          "type": "address"
        }
      ],
      "name": "assignAdmin",
      "outputs": [],
      "stateMutability": "nonpayable",
      "type": "function"
    },
    {
      "inputs": [],
      "name": "kill",
      "outputs": [],
      "stateMutability": "nonpayable",
      "type": "function"
    },
    {
      "inputs": [
        {
          "internalType": "address",
          "name": "_admin",
          "type": "address"
        }
      ],
      "name": "removeAdmin",
      "outputs": [],
      "stateMutability": "nonpayable",
      "type": "function"
    },
    {
      "inputs": [],
      "name": "token",
      "outputs": [
        {
          "internalType": "contract IERC20",
          "name": "",
          "type": "address"
        }
      ],
      "stateMutability": "view",
      "type": "function"
    }
  ],
  "bytecode": "0x60806040523480156200001157600080fd5b5060405162001a8b38038062001a8b833981810160405281019062000037919062000246565b6200006b7fd6132037dd6302b81d672f2838622d683dc6c932f508c9faae05942b246f8faf60001b620001d960201b60201c565b6200009f7f530b2611aebe840175a73898e078c7668069d951d53fbbaf9d4e4c124baa11ab60001b620001d960201b60201c565b620000d37ff45f2db53907d9cdd594fe19c635a11bb49e5ded92571a5106a56e377ddd689d60001b620001d960201b60201c565b60018060003373ffffffffffffffffffffffffffffffffffffffff1673ffffffffffffffffffffffffffffffffffffffff16815260200190815260200160002060006101000a81548160ff0219169083151502179055506200015e7f0facdc5bb45089e55f3f1e6eda487856e77583ab634468ef24d843bc5678223860001b620001d960201b60201c565b620001927f01d08866be78672a4ef4d08f79d2e57d5dcc4c95989539175cb739095fa9451f60001b620001d960201b60201c565b806000806101000a81548173ffffffffffffffffffffffffffffffffffffffff021916908373ffffffffffffffffffffffffffffffffffffffff1602179055505062000278565b50565b600080fd5b600073ffffffffffffffffffffffffffffffffffffffff82169050919050565b60006200020e82620001e1565b9050919050565b620002208162000201565b81146200022c57600080fd5b50565b600081519050620002408162000215565b92915050565b6000602082840312156200025f576200025e620001dc565b5b60006200026f848285016200022f565b91505092915050565b61180380620002886000396000f3fe608060405234801561001057600080fd5b50600436106100575760003560e01c80631785f53c1461005c5780633da7d2ed1461007857806341c0e1b514610094578063672434821461009e578063fc0c546a146100ba575b600080fd5b61007660048036038101906100719190611226565b6100d8565b005b610092600480360381019061008d9190611226565b6104e7565b005b61009c6107b9565b005b6100b860048036038101906100b3919061130e565b610a48565b005b6100c2611197565b6040516100cf91906113ee565b60405180910390f35b336101057f622f5f7726111892ed900c7ee53c0d48f741676296e36145e8fe227d57c311ff60001b6111bb565b6101317f368fab1fc2e4b4ff24e8146a40525c1d7282a3d1687d573d99faf8307aa0b01e60001b6111bb565b61015d7feba2e00ac49ff79c4a034727e9d318c30cf3590d63502aa25a51469908f7cb9260001b6111bb565b6000600160008373ffffffffffffffffffffffffffffffffffffffff1673ffffffffffffffffffffffffffffffffffffffff16815260200190815260200160002060009054906101000a900460ff1690506101da7ffeca950c279215b042966180408cd69f3025fc1574cf565fa31176743ce8b74660001b6111bb565b6102067f2a251d5b2a8ae86076e725b3a5c7dfe26a6b1d2f49bdf166b227146784ec4d0f60001b6111bb565b6102327ff9671648f2121e345d29be5aeba4536fefd16ec185703302a31e5f539a6955c660001b6111bb565b80610272576040517f08c379a000000000000000000000000000000000000000000000000000000000815260040161026990611466565b60405180910390fd5b61029e7fd337ae63fce39cd2e20af3c81c38a740390e8d283a72966af41629e40f6fcde860001b6111bb565b6102ca7f5e306346579a1f07d92bb94f575c88533641cb89f025e4bb06c2c3e2cfac134a60001b6111bb565b6102f67fe2db10b8308fead362a9c26d3ef2bc04b9d6e703a851ff8f540235d25e889e4e60001b6111bb565b6103227f7675d501cd75ddb03157932da70344b05fcb680159898c7a53d003f19e244ede60001b6111bb565b61034e7f1a1e736dcfd9aa948b356d5350db87ac8d73e749f7df60a04eb69dddfe2bf15460001b6111bb565b61037a7f06e19074cc98997d5d5b8d2dc497e5f75e5a79c5f50b124260f390888bffc6b060001b6111bb565b600160008473ffffffffffffffffffffffffffffffffffffffff1673ffffffffffffffffffffffffffffffffffffffff16815260200190815260200160002060009054906101000a900460ff16610406576040517f08c379a00000000000000000000000000000000000000000000000000000000081526004016103fd906114d2565b60405180910390fd5b6104327f3acef9ee364e81f4b0bf2ec77695ac63f4594f9c4301464c13edf2d6582095dc60001b6111bb565b61045e7f2b539b5611cbe832fec49bbedcdfbc73a8b4e833fa70edd34f9ad795d3027ab260001b6111bb565b61048a7f4d6740e0d53b73755057acc5ca15b38d8521d3629387d23cde37ec52ef0d34fe60001b6111bb565b6000600160008573ffffffffffffffffffffffffffffffffffffffff1673ffffffffffffffffffffffffffffffffffffffff16815260200190815260200160002060006101000a81548160ff021916908315150217905550505050565b336105147f622f5f7726111892ed900c7ee53c0d48f741676296e36145e8fe227d57c311ff60001b6111bb565b6105407f368fab1fc2e4b4ff24e8146a40525c1d7282a3d1687d573d99faf8307aa0b01e60001b6111bb565b61056c7feba2e00ac49ff79c4a034727e9d318c30cf3590d63502aa25a51469908f7cb9260001b6111bb565b6000600160008373ffffffffffffffffffffffffffffffffffffffff1673ffffffffffffffffffffffffffffffffffffffff16815260200190815260200160002060009054906101000a900460ff1690506105e97ffeca950c279215b042966180408cd69f3025fc1574cf565fa31176743ce8b74660001b6111bb565b6106157f2a251d5b2a8ae86076e725b3a5c7dfe26a6b1d2f49bdf166b227146784ec4d0f60001b6111bb565b6106417ff9671648f2121e345d29be5aeba4536fefd16ec185703302a31e5f539a6955c660001b6111bb565b80610681576040517f08c379a000000000000000000000000000000000000000000000000000000000815260040161067890611466565b60405180910390fd5b6106ad7fd337ae63fce39cd2e20af3c81c38a740390e8d283a72966af41629e40f6fcde860001b6111bb565b6106d97f5e306346579a1f07d92bb94f575c88533641cb89f025e4bb06c2c3e2cfac134a60001b6111bb565b6107057fa6c863a054b2b8136347f59308416860c485f23cb0f8bac3b84ee4fe4a5dfbf760001b6111bb565b6107317fd382b3727eb1c137d3f281d03d982aae4219f9d7aa6c4646214e236dd16fcd4060001b6111bb565b61075d7f62a145557e9ad21579f75dd3077e1f3ce9d97822b0acdfb0de4e564de02ec20360001b6111bb565b60018060008573ffffffffffffffffffffffffffffffffffffffff1673ffffffffffffffffffffffffffffffffffffffff16815260200190815260200160002060006101000a81548160ff021916908315150217905550505050565b336107e67f622f5f7726111892ed900c7ee53c0d48f741676296e36145e8fe227d57c311ff60001b6111bb565b6108127f368fab1fc2e4b4ff24e8146a40525c1d7282a3d1687d573d99faf8307aa0b01e60001b6111bb565b61083e7feba2e00ac49ff79c4a034727e9d318c30cf3590d63502aa25a51469908f7cb9260001b6111bb565b6000600160008373ffffffffffffffffffffffffffffffffffffffff1673ffffffffffffffffffffffffffffffffffffffff16815260200190815260200160002060009054906101000a900460ff1690506108bb7ffeca950c279215b042966180408cd69f3025fc1574cf565fa31176743ce8b74660001b6111bb565b6108e77f2a251d5b2a8ae86076e725b3a5c7dfe26a6b1d2f49bdf166b227146784ec4d0f60001b6111bb565b6109137ff9671648f2121e345d29be5aeba4536fefd16ec185703302a31e5f539a6955c660001b6111bb565b80610953576040517f08c379a000000000000000000000000000000000000000000000000000000000815260040161094a90611466565b60405180910390fd5b61097f7fd337ae63fce39cd2e20af3c81c38a740390e8d283a72966af41629e40f6fcde860001b6111bb565b6109ab7f5e306346579a1f07d92bb94f575c88533641cb89f025e4bb06c2c3e2cfac134a60001b6111bb565b6109d77f3aac18163b16b29b4ec5deb8405550a73c98673343e430987ac38948f4892b1460001b6111bb565b610a037ff9a8654947babd90d8c7a51cb953b5cec21052d56a78d1b43c133c2c7b1b904160001b6111bb565b610a2f7fa2474e0a9db0987946ec834ddf10e0483049c1a7d0e4192f62bf4f3d7105f23660001b6111bb565b3373ffffffffffffffffffffffffffffffffffffffff16ff5b33610a757f622f5f7726111892ed900c7ee53c0d48f741676296e36145e8fe227d57c311ff60001b6111bb565b610aa17f368fab1fc2e4b4ff24e8146a40525c1d7282a3d1687d573d99faf8307aa0b01e60001b6111bb565b610acd7feba2e00ac49ff79c4a034727e9d318c30cf3590d63502aa25a51469908f7cb9260001b6111bb565b6000600160008373ffffffffffffffffffffffffffffffffffffffff1673ffffffffffffffffffffffffffffffffffffffff16815260200190815260200160002060009054906101000a900460ff169050610b4a7ffeca950c279215b042966180408cd69f3025fc1574cf565fa31176743ce8b74660001b6111bb565b610b767f2a251d5b2a8ae86076e725b3a5c7dfe26a6b1d2f49bdf166b227146784ec4d0f60001b6111bb565b610ba27ff9671648f2121e345d29be5aeba4536fefd16ec185703302a31e5f539a6955c660001b6111bb565b80610be2576040517f08c379a0000000000000000000000000000000000000000000000000000000008152600401610bd990611466565b60405180910390fd5b610c0e7fd337ae63fce39cd2e20af3c81c38a740390e8d283a72966af41629e40f6fcde860001b6111bb565b610c3a7f5e306346579a1f07d92bb94f575c88533641cb89f025e4bb06c2c3e2cfac134a60001b6111bb565b610c667ffcfb3cd2861bf2044c3d5d3b468abf9bc84879dd8b180ad617aa2fa2d0e1132760001b6111bb565b610c927f8fd2018656d35bdb74070775c0c86b39769395ab24c603801255bde64532607e60001b6111bb565b610cbe7f282e3f9ce562717f71105e457a9653248b6940dc9671496c6b2a296a59e690f760001b6111bb565b610cea7f3038fa075104855d939c02b2a9b5b7ea377022d955fb49500b42e0ee5751cdb260001b6111bb565b838390508686905014610d32576040517f08c379a0000000000000000000000000000000000000000000000000000000008152600401610d299061153e565b60405180910390fd5b610d5e7ff8a180f55fd3414aa61c7bc5276401ff52d0c140924ef6538394b521789ea19c60001b6111bb565b610d8a7f946dab71372d0861dd1afde74cd7921a3efc71832b68916a9b10b28c15d7fbb860001b6111bb565b610db67fc642095a1c2d95a23eb063466698332c334aca2c622d7d4f0399ebcfb2de745260001b6111bb565b610de27f265a9ebaa31420c58e8a679515cf4ebb7d29192beffbc2e212d798d636f300ca60001b6111bb565b60c8868690501115610e29576040517f08c379a0000000000000000000000000000000000000000000000000000000008152600401610e20906115f6565b60405180910390fd5b610e557f01c87928e31b717b7582d854e205d35c9ffc84835632b94ac185a4802f64976060001b6111bb565b610e817f60a0a9863a927bbd6165a780cc3fdde5e4688b37942b251a20707f222b64f40160001b6111bb565b610ead7fb27babf2dcb5b6c4a3b3c6e49a1ecea280f648824f5adf4af7b4396bb705c29d60001b6111bb565b60005b8686905081101561118e57610ee77f28a0068a98e4ce68af7c58821f1a3953481b96b205eb06757e4c2aa444b321d460001b6111bb565b610f137faa8a93cabfb73a27828253cab810033e1087530cc9d1d38a0790d99c52a89fce60001b6111bb565b6000670de0b6b3a7640000868684818110610f3157610f30611616565b5b90506020020135610f42919061167e565b9050610f707f473bc85caed8d1027d3794aea17c3163998b6896eb204de6d843053f3cf2a08a60001b6111bb565b610f9c7f9ab40fbfbf75ccc8007d86f487976546e1ae40666b1fac02be6b92114e2b0c9a60001b6111bb565b610fc87fb366572d270969a5cc5e49955bad24bb79ae621db7cbf6d51a7339db66a5b20560001b6111bb565b60008054906101000a900473ffffffffffffffffffffffffffffffffffffffff1673ffffffffffffffffffffffffffffffffffffffff1663a9059cbb89898581811061101757611016611616565b5b905060200201602081019061102c9190611226565b836040518363ffffffff1660e01b815260040161104a9291906116f6565b6020604051808303816000875af1158015611069573d6000803e3d6000fd5b505050506040513d601f19601f8201168201806040525081019061108d9190611757565b61109657600080fd5b6110c27ffabf7862d9a03c984d75fa9141141cdf188fb84eac170133fbc727f13305379660001b6111bb565b6110ee7f2d4ff4be0bf0d5af482f1f63ea6557f93839aec9dde1667180b350c40f968ce260001b6111bb565b61111a7f4793bd11db294c80617044b86a106aa888854746e095019279688dc0bbb1960860001b6111bb565b7f6979598ca4d86fb9b9ff448d56594c8a75674c28a0fd4d913b7e4d342f0cd6a088888481811061114e5761114d611616565b5b90506020020160208101906111639190611226565b826040516111729291906116f6565b60405180910390a150808061118690611784565b915050610eb0565b50505050505050565b60008054906101000a900473ffffffffffffffffffffffffffffffffffffffff1681565b50565b600080fd5b600080fd5b600073ffffffffffffffffffffffffffffffffffffffff82169050919050565b60006111f3826111c8565b9050919050565b611203816111e8565b811461120e57600080fd5b50565b600081359050611220816111fa565b92915050565b60006020828403121561123c5761123b6111be565b5b600061124a84828501611211565b91505092915050565b600080fd5b600080fd5b600080fd5b60008083601f84011261127857611277611253565b5b8235905067ffffffffffffffff81111561129557611294611258565b5b6020830191508360208202830111156112b1576112b061125d565b5b9250929050565b60008083601f8401126112ce576112cd611253565b5b8235905067ffffffffffffffff8111156112eb576112ea611258565b5b6020830191508360208202830111156113075761130661125d565b5b9250929050565b60008060008060408587031215611328576113276111be565b5b600085013567ffffffffffffffff811115611346576113456111c3565b5b61135287828801611262565b9450945050602085013567ffffffffffffffff811115611375576113746111c3565b5b611381878288016112b8565b925092505092959194509250565b6000819050919050565b60006113b46113af6113aa846111c8565b61138f565b6111c8565b9050919050565b60006113c682611399565b9050919050565b60006113d8826113bb565b9050919050565b6113e8816113cd565b82525050565b600060208201905061140360008301846113df565b92915050565b600082825260208201905092915050565b7f4f6e6c792041646d696e20486173204163636573732100000000000000000000600082015250565b6000611450601683611409565b915061145b8261141a565b602082019050919050565b6000602082019050818103600083015261147f81611443565b9050919050565b7f41646472657373206973206e6f7420616e2061646d696e2e0000000000000000600082015250565b60006114bc601883611409565b91506114c782611486565b602082019050919050565b600060208201905081810360008301526114eb816114af565b9050919050565b7f4172726179204c656e67746873206d75737420626520657175616c2e00000000600082015250565b6000611528601c83611409565b9150611533826114f2565b602082019050919050565b600060208201905081810360008301526115578161151b565b9050919050565b7f736f7272792c206d6178696d756d206e756d626572206f66206164647265737360008201527f6573206f6e2061206c6973742063616e6e6f74206265206d6f7265207468616e60208201527f2032303000000000000000000000000000000000000000000000000000000000604082015250565b60006115e0604483611409565b91506115eb8261155e565b606082019050919050565b6000602082019050818103600083015261160f816115d3565b9050919050565b7f4e487b7100000000000000000000000000000000000000000000000000000000600052603260045260246000fd5b6000819050919050565b7f4e487b7100000000000000000000000000000000000000000000000000000000600052601160045260246000fd5b600061168982611645565b915061169483611645565b9250817fffffffffffffffffffffffffffffffffffffffffffffffffffffffffffffffff04831182151516156116cd576116cc61164f565b5b828202905092915050565b6116e1816111e8565b82525050565b6116f081611645565b82525050565b600060408201905061170b60008301856116d8565b61171860208301846116e7565b9392505050565b60008115159050919050565b6117348161171f565b811461173f57600080fd5b50565b6000815190506117518161172b565b92915050565b60006020828403121561176d5761176c6111be565b5b600061177b84828501611742565b91505092915050565b600061178f82611645565b91507fffffffffffffffffffffffffffffffffffffffffffffffffffffffffffffffff8214156117c2576117c161164f565b5b60018201905091905056fea264697066735822122096ccd3975178d4dbc0b9f69fef4c85036b0223c873fc9729810150141620de0e64736f6c634300080a0033",
  "linkReferences": {},
  "deployedLinkReferences": {}
}