{
  "_format": "hh-sol-artifact-1",
  "contractName": "Nestdrop",
  "sourceName": "contracts/Nestdrop.sol",
  "abi": [
    {
      "inputs": [
        {
          "internalType": "address",
          "name": "_NestCoin",
          "type": "address"
        }
      ],
      "stateMutability": "nonpayable",
      "type": "constructor"
    },
    {
      "anonymous": false,
      "inputs": [
        {
          "indexed": false,
          "internalType": "address",
          "name": "customer",
          "type": "address"
        },
        {
          "indexed": false,
          "internalType": "uint256",
          "name": "amount",
          "type": "uint256"
        }
      ],
      "name": "Dispatched",
      "type": "event"
    },
    {
      "inputs": [
        {
          "internalType": "address",
          "name": "",
          "type": "address"
        }
      ],
      "name": "admins",
      "outputs": [
        {
          "internalType": "bool",
          "name": "",
          "type": "bool"
        }
      ],
      "stateMutability": "view",
      "type": "function"
    },
    {
      "inputs": [
        {
          "internalType": "address[]",
          "name": "_address",
          "type": "address[]"
        },
        {
          "internalType": "uint256[]",
          "name": "_rewards",
          "type": "uint256[]"
        }
      ],
      "name": "airdrop",
      "outputs": [],
      "stateMutability": "nonpayable",
      "type": "function"
    },
    {
      "inputs": [
        {
          "internalType": "address",
          "name": "_newAdmin",
          "type": "address"
        }
      ],
      "name": "assignAdmin",
      "outputs": [],
      "stateMutability": "nonpayable",
      "type": "function"
    },
    {
      "inputs": [],
      "name": "kill",
      "outputs": [],
      "stateMutability": "nonpayable",
      "type": "function"
    },
    {
      "inputs": [
        {
          "internalType": "address",
          "name": "_admin",
          "type": "address"
        }
      ],
      "name": "removeAdmin",
      "outputs": [],
      "stateMutability": "nonpayable",
      "type": "function"
    },
    {
      "inputs": [],
      "name": "token",
      "outputs": [
        {
          "internalType": "contract IERC20",
          "name": "",
          "type": "address"
        }
      ],
      "stateMutability": "view",
      "type": "function"
    }
  ],
  "bytecode": "0x608060405234801561001057600080fd5b50604051610ef3380380610ef383398181016040528101906100329190610132565b60018060003373ffffffffffffffffffffffffffffffffffffffff1673ffffffffffffffffffffffffffffffffffffffff16815260200190815260200160002060006101000a81548160ff021916908315150217905550806000806101000a81548173ffffffffffffffffffffffffffffffffffffffff021916908373ffffffffffffffffffffffffffffffffffffffff1602179055505061015f565b600080fd5b600073ffffffffffffffffffffffffffffffffffffffff82169050919050565b60006100ff826100d4565b9050919050565b61010f816100f4565b811461011a57600080fd5b50565b60008151905061012c81610106565b92915050565b600060208284031215610148576101476100cf565b5b60006101568482850161011d565b91505092915050565b610d858061016e6000396000f3fe608060405234801561001057600080fd5b50600436106100625760003560e01c80631785f53c146100675780633da7d2ed1461008357806341c0e1b51461009f578063429b62e5146100a957806367243482146100d9578063fc0c546a146100f5575b600080fd5b610081600480360381019061007c919061077e565b610113565b005b61009d6004803603810190610098919061077e565b61028e565b005b6100a761037c565b005b6100c360048036038101906100be919061077e565b610427565b6040516100d091906107c6565b60405180910390f35b6100f360048036038101906100ee919061089c565b610447565b005b6100fd6106f2565b60405161010a919061097c565b60405180910390f35b336000600160008373ffffffffffffffffffffffffffffffffffffffff1673ffffffffffffffffffffffffffffffffffffffff16815260200190815260200160002060009054906101000a900460ff169050806101a5576040517f08c379a000000000000000000000000000000000000000000000000000000000815260040161019c906109f4565b60405180910390fd5b600160008473ffffffffffffffffffffffffffffffffffffffff1673ffffffffffffffffffffffffffffffffffffffff16815260200190815260200160002060009054906101000a900460ff16610231576040517f08c379a000000000000000000000000000000000000000000000000000000000815260040161022890610a60565b60405180910390fd5b6000600160008573ffffffffffffffffffffffffffffffffffffffff1673ffffffffffffffffffffffffffffffffffffffff16815260200190815260200160002060006101000a81548160ff021916908315150217905550505050565b336000600160008373ffffffffffffffffffffffffffffffffffffffff1673ffffffffffffffffffffffffffffffffffffffff16815260200190815260200160002060009054906101000a900460ff16905080610320576040517f08c379a0000000000000000000000000000000000000000000000000000000008152600401610317906109f4565b60405180910390fd5b60018060008573ffffffffffffffffffffffffffffffffffffffff1673ffffffffffffffffffffffffffffffffffffffff16815260200190815260200160002060006101000a81548160ff021916908315150217905550505050565b336000600160008373ffffffffffffffffffffffffffffffffffffffff1673ffffffffffffffffffffffffffffffffffffffff16815260200190815260200160002060009054906101000a900460ff1690508061040e576040517f08c379a0000000000000000000000000000000000000000000000000000000008152600401610405906109f4565b60405180910390fd5b3373ffffffffffffffffffffffffffffffffffffffff16ff5b60016020528060005260406000206000915054906101000a900460ff1681565b336000600160008373ffffffffffffffffffffffffffffffffffffffff1673ffffffffffffffffffffffffffffffffffffffff16815260200190815260200160002060009054906101000a900460ff169050806104d9576040517f08c379a00000000000000000000000000000000000000000000000000000000081526004016104d0906109f4565b60405180910390fd5b838390508686905014610521576040517f08c379a000000000000000000000000000000000000000000000000000000000815260040161051890610acc565b60405180910390fd5b60c8868690501115610568576040517f08c379a000000000000000000000000000000000000000000000000000000000815260040161055f90610b84565b60405180910390fd5b60005b868690508110156106e9576000670de0b6b3a764000086868481811061059457610593610ba4565b5b905060200201356105a59190610c0c565b905060008054906101000a900473ffffffffffffffffffffffffffffffffffffffff1673ffffffffffffffffffffffffffffffffffffffff1663a9059cbb8989858181106105f6576105f5610ba4565b5b905060200201602081019061060b919061077e565b836040518363ffffffff1660e01b8152600401610629929190610c84565b6020604051808303816000875af1158015610648573d6000803e3d6000fd5b505050506040513d601f19601f8201168201806040525081019061066c9190610cd9565b61067557600080fd5b7f6979598ca4d86fb9b9ff448d56594c8a75674c28a0fd4d913b7e4d342f0cd6a08888848181106106a9576106a8610ba4565b5b90506020020160208101906106be919061077e565b826040516106cd929190610c84565b60405180910390a15080806106e190610d06565b91505061056b565b50505050505050565b60008054906101000a900473ffffffffffffffffffffffffffffffffffffffff1681565b600080fd5b600080fd5b600073ffffffffffffffffffffffffffffffffffffffff82169050919050565b600061074b82610720565b9050919050565b61075b81610740565b811461076657600080fd5b50565b60008135905061077881610752565b92915050565b60006020828403121561079457610793610716565b5b60006107a284828501610769565b91505092915050565b60008115159050919050565b6107c0816107ab565b82525050565b60006020820190506107db60008301846107b7565b92915050565b600080fd5b600080fd5b600080fd5b60008083601f840112610806576108056107e1565b5b8235905067ffffffffffffffff811115610823576108226107e6565b5b60208301915083602082028301111561083f5761083e6107eb565b5b9250929050565b60008083601f84011261085c5761085b6107e1565b5b8235905067ffffffffffffffff811115610879576108786107e6565b5b602083019150836020820283011115610895576108946107eb565b5b9250929050565b600080600080604085870312156108b6576108b5610716565b5b600085013567ffffffffffffffff8111156108d4576108d361071b565b5b6108e0878288016107f0565b9450945050602085013567ffffffffffffffff8111156109035761090261071b565b5b61090f87828801610846565b925092505092959194509250565b6000819050919050565b600061094261093d61093884610720565b61091d565b610720565b9050919050565b600061095482610927565b9050919050565b600061096682610949565b9050919050565b6109768161095b565b82525050565b6000602082019050610991600083018461096d565b92915050565b600082825260208201905092915050565b7f4f6e6c792041646d696e20486173204163636573732100000000000000000000600082015250565b60006109de601683610997565b91506109e9826109a8565b602082019050919050565b60006020820190508181036000830152610a0d816109d1565b9050919050565b7f41646472657373206973206e6f7420616e2061646d696e2e0000000000000000600082015250565b6000610a4a601883610997565b9150610a5582610a14565b602082019050919050565b60006020820190508181036000830152610a7981610a3d565b9050919050565b7f4172726179204c656e67746873206d75737420626520657175616c2e00000000600082015250565b6000610ab6601c83610997565b9150610ac182610a80565b602082019050919050565b60006020820190508181036000830152610ae581610aa9565b9050919050565b7f736f7272792c206d6178696d756d206e756d626572206f66206164647265737360008201527f6573206f6e2061206c6973742063616e6e6f74206265206d6f7265207468616e60208201527f2032303000000000000000000000000000000000000000000000000000000000604082015250565b6000610b6e604483610997565b9150610b7982610aec565b606082019050919050565b60006020820190508181036000830152610b9d81610b61565b9050919050565b7f4e487b7100000000000000000000000000000000000000000000000000000000600052603260045260246000fd5b6000819050919050565b7f4e487b7100000000000000000000000000000000000000000000000000000000600052601160045260246000fd5b6000610c1782610bd3565b9150610c2283610bd3565b9250817fffffffffffffffffffffffffffffffffffffffffffffffffffffffffffffffff0483118215151615610c5b57610c5a610bdd565b5b828202905092915050565b610c6f81610740565b82525050565b610c7e81610bd3565b82525050565b6000604082019050610c996000830185610c66565b610ca66020830184610c75565b9392505050565b610cb6816107ab565b8114610cc157600080fd5b50565b600081519050610cd381610cad565b92915050565b600060208284031215610cef57610cee610716565b5b6000610cfd84828501610cc4565b91505092915050565b6000610d1182610bd3565b91507fffffffffffffffffffffffffffffffffffffffffffffffffffffffffffffffff821415610d4457610d43610bdd565b5b60018201905091905056fea2646970667358221220e699b0ed00b41c1806f6053b053df209a29d096c483366ee9f28dbd078a2576064736f6c634300080a0033",
  "linkReferences": {},
  "deployedLinkReferences": {}
}