{
    "contractName": "YourContract",
    "abi": [
        {
            "inputs": [],
            "stateMutability": "payable",
            "type": "constructor"
        },
        {
            "anonymous": false,
            "inputs": [
                {
                    "indexed": false,
                    "internalType": "address",
                    "name": "sender",
                    "type": "address"
                },
                {
                    "indexed": false,
                    "internalType": "string",
                    "name": "purpose",
                    "type": "string"
                }
            ],
            "name": "SetPurpose",
            "type": "event"
        },
        {
            "stateMutability": "payable",
            "type": "fallback"
        },
        {
            "inputs": [],
            "name": "purpose",
            "outputs": [
                {
                    "internalType": "string",
                    "name": "",
                    "type": "string"
                }
            ],
            "stateMutability": "view",
            "type": "function"
        },
        {
            "inputs": [
                {
                    "internalType": "string",
                    "name": "newPurpose",
                    "type": "string"
                }
            ],
            "name": "setPurpose",
            "outputs": [],
            "stateMutability": "nonpayable",
            "type": "function"
        },
        {
            "stateMutability": "payable",
            "type": "receive"
        }
    ],
    "bytecode": "60c0604052601c60808190527f4275696c64696e6720556e73746f707061626c6520417070732121210000000060a090815261003e9160009190610044565b50610117565b828054610050906100dd565b90600052602060002090601f01602090048101928261007257600085556100b8565b82601f1061008b57805160ff19168380011785556100b8565b828001600101855582156100b8579182015b828111156100b857825182559160200191906001019061009d565b506100c49291506100c8565b5090565b5b808211156100c457600081556001016100c9565b600181811c908216806100f157607f821691505b60208210810361011157634e487b7160e01b600052602260045260246000fd5b50919050565b6105b4806101266000396000f3fe60806040526004361061002a5760003560e01c806370740aab14610033578063eb68757f1461005e57005b3661003157005b005b34801561003f57600080fd5b5061004861007e565b604051610055919061036b565b60405180910390f35b34801561006a57600080fd5b5061003161007936600461039b565b61010c565b6000805461008b9061044c565b80601f01602080910402602001604051908101604052809291908181526020018280546100b79061044c565b80156101045780601f106100d957610100808354040283529160200191610104565b820191906000526020600020905b8154815290600101906020018083116100e757829003601f168201915b505050505081565b805161011f906000906020840190610285565b506101db336040518060400160405280600e81526020016d73657420707572706f736520746f60901b815250600080546101589061044c565b80601f01602080910402602001604051908101604052809291908181526020018280546101849061044c565b80156101d15780601f106101a6576101008083540402835291602001916101d1565b820191906000526020600020905b8154815290600101906020018083116101b457829003601f168201915b5050505050610218565b7f6ea5d6383a120235c7728a9a6751672a8ac068e4ed34dcca2ee444182c1812de33600060405161020d929190610486565b60405180910390a150565b61025f8383836040516024016102309392919061053e565b60408051601f198184030181529190526020810180516001600160e01b031663fb77226560e01b179052610264565b505050565b80516a636f6e736f6c652e6c6f67602083016000808483855afa5050505050565b8280546102919061044c565b90600052602060002090601f0160209004810192826102b357600085556102f9565b82601f106102cc57805160ff19168380011785556102f9565b828001600101855582156102f9579182015b828111156102f95782518255916020019190600101906102de565b50610305929150610309565b5090565b5b80821115610305576000815560010161030a565b6000815180845260005b8181101561034457602081850181015186830182015201610328565b81811115610356576000602083870101525b50601f01601f19169290920160200192915050565b60208152600061037e602083018461031e565b9392505050565b634e487b7160e01b600052604160045260246000fd5b6000602082840312156103ad57600080fd5b813567ffffffffffffffff808211156103c557600080fd5b818401915084601f8301126103d957600080fd5b8135818111156103eb576103eb610385565b604051601f8201601f19908116603f0116810190838211818310171561041357610413610385565b8160405282815287602084870101111561042c57600080fd5b826020860160208301376000928101602001929092525095945050505050565b600181811c9082168061046057607f821691505b60208210810361048057634e487b7160e01b600052602260045260246000fd5b50919050565b60018060a01b0383168152600060206040818401526000845481600182811c9150808316806104b657607f831692505b85831081036104d357634e487b7160e01b85526022600452602485fd5b60408801839052606088018180156104f257600181146105035761052e565b60ff1986168252878201965061052e565b60008b81526020902060005b868110156105285781548482015290850190890161050f565b83019750505b50949a9950505050505050505050565b6001600160a01b03841681526060602082018190526000906105629083018561031e565b8281036040840152610574818561031e565b969550505050505056fea26469706673582212207a8c6d42c5c1885f14d8a59cbf1bf4adbbfde2827e7e300371a14ea38216dfb664736f6c634300080d0033",
    "sourcePath": "/home/jm/web3/blockgames/Bg-Alpha-project-1/packages/hardhat/contracts/YourContract.sol",
    "compiler": {
        "name": "solc",
        "version": "0.8.13+commit.abaa5c0e"
    },
    "functionHashes": {
        "purpose()": "70740aab",
        "setPurpose(string)": "eb68757f"
    },
    "gasEstimates": {
        "creation": {
            "codeDepositCost": "292000",
            "executionCost": "infinite",
            "totalCost": "infinite"
        },
        "external": {
            "": "95",
            "purpose()": "infinite",
            "setPurpose(string)": "infinite"
        }
    }
}