{
  "_format": "hh-sol-artifact-1",
  "contractName": "Nestdrop",
  "sourceName": "contracts/Nestdrop.sol",
  "abi": [
    {
      "inputs": [
        {
          "internalType": "address",
          "name": "_NestCoin",
          "type": "address"
        }
      ],
      "stateMutability": "nonpayable",
      "type": "constructor"
    },
    {
      "anonymous": false,
      "inputs": [
        {
          "indexed": false,
          "internalType": "address",
          "name": "customer",
          "type": "address"
        },
        {
          "indexed": false,
          "internalType": "uint256",
          "name": "amount",
          "type": "uint256"
        }
      ],
      "name": "Dispatched",
      "type": "event"
    },
    {
      "inputs": [
        {
          "internalType": "address[]",
          "name": "_address",
          "type": "address[]"
        },
        {
          "internalType": "uint256[]",
          "name": "_rewards",
          "type": "uint256[]"
        }
      ],
      "name": "airdrop",
      "outputs": [],
      "stateMutability": "nonpayable",
      "type": "function"
    },
    {
      "inputs": [
        {
          "internalType": "address",
          "name": "_newAdmin",
          "type": "address"
        }
      ],
      "name": "assignAdmin",
      "outputs": [],
      "stateMutability": "nonpayable",
      "type": "function"
    },
    {
      "inputs": [],
      "name": "kill",
      "outputs": [],
      "stateMutability": "nonpayable",
      "type": "function"
    },
    {
      "inputs": [
        {
          "internalType": "address",
          "name": "_admin",
          "type": "address"
        }
      ],
      "name": "removeAdmin",
      "outputs": [],
      "stateMutability": "nonpayable",
      "type": "function"
    },
    {
      "inputs": [],
      "name": "token",
      "outputs": [
        {
          "internalType": "contract IERC20",
          "name": "",
          "type": "address"
        }
      ],
      "stateMutability": "view",
      "type": "function"
    }
  ],
  "bytecode": "0x608060405234801561001057600080fd5b50604051610e6e380380610e6e83398181016040528101906100329190610132565b60018060003373ffffffffffffffffffffffffffffffffffffffff1673ffffffffffffffffffffffffffffffffffffffff16815260200190815260200160002060006101000a81548160ff021916908315150217905550806000806101000a81548173ffffffffffffffffffffffffffffffffffffffff021916908373ffffffffffffffffffffffffffffffffffffffff1602179055505061015f565b600080fd5b600073ffffffffffffffffffffffffffffffffffffffff82169050919050565b60006100ff826100d4565b9050919050565b61010f816100f4565b811461011a57600080fd5b50565b60008151905061012c81610106565b92915050565b600060208284031215610148576101476100cf565b5b60006101568482850161011d565b91505092915050565b610d008061016e6000396000f3fe608060405234801561001057600080fd5b50600436106100575760003560e01c80631785f53c1461005c5780633da7d2ed1461007857806341c0e1b514610094578063672434821461009e578063fc0c546a146100ba575b600080fd5b61007660048036038101906100719190610723565b6100d8565b005b610092600480360381019061008d9190610723565b610253565b005b61009c610341565b005b6100b860048036038101906100b3919061080b565b6103ec565b005b6100c2610697565b6040516100cf91906108eb565b60405180910390f35b336000600160008373ffffffffffffffffffffffffffffffffffffffff1673ffffffffffffffffffffffffffffffffffffffff16815260200190815260200160002060009054906101000a900460ff1690508061016a576040517f08c379a000000000000000000000000000000000000000000000000000000000815260040161016190610963565b60405180910390fd5b600160008473ffffffffffffffffffffffffffffffffffffffff1673ffffffffffffffffffffffffffffffffffffffff16815260200190815260200160002060009054906101000a900460ff166101f6576040517f08c379a00000000000000000000000000000000000000000000000000000000081526004016101ed906109cf565b60405180910390fd5b6000600160008573ffffffffffffffffffffffffffffffffffffffff1673ffffffffffffffffffffffffffffffffffffffff16815260200190815260200160002060006101000a81548160ff021916908315150217905550505050565b336000600160008373ffffffffffffffffffffffffffffffffffffffff1673ffffffffffffffffffffffffffffffffffffffff16815260200190815260200160002060009054906101000a900460ff169050806102e5576040517f08c379a00000000000000000000000000000000000000000000000000000000081526004016102dc90610963565b60405180910390fd5b60018060008573ffffffffffffffffffffffffffffffffffffffff1673ffffffffffffffffffffffffffffffffffffffff16815260200190815260200160002060006101000a81548160ff021916908315150217905550505050565b336000600160008373ffffffffffffffffffffffffffffffffffffffff1673ffffffffffffffffffffffffffffffffffffffff16815260200190815260200160002060009054906101000a900460ff169050806103d3576040517f08c379a00000000000000000000000000000000000000000000000000000000081526004016103ca90610963565b60405180910390fd5b3373ffffffffffffffffffffffffffffffffffffffff16ff5b336000600160008373ffffffffffffffffffffffffffffffffffffffff1673ffffffffffffffffffffffffffffffffffffffff16815260200190815260200160002060009054906101000a900460ff1690508061047e576040517f08c379a000000000000000000000000000000000000000000000000000000000815260040161047590610963565b60405180910390fd5b8383905086869050146104c6576040517f08c379a00000000000000000000000000000000000000000000000000000000081526004016104bd90610a3b565b60405180910390fd5b60c886869050111561050d576040517f08c379a000000000000000000000000000000000000000000000000000000000815260040161050490610af3565b60405180910390fd5b60005b8686905081101561068e576000670de0b6b3a764000086868481811061053957610538610b13565b5b9050602002013561054a9190610b7b565b905060008054906101000a900473ffffffffffffffffffffffffffffffffffffffff1673ffffffffffffffffffffffffffffffffffffffff1663a9059cbb89898581811061059b5761059a610b13565b5b90506020020160208101906105b09190610723565b836040518363ffffffff1660e01b81526004016105ce929190610bf3565b6020604051808303816000875af11580156105ed573d6000803e3d6000fd5b505050506040513d601f19601f820116820180604052508101906106119190610c54565b61061a57600080fd5b7f6979598ca4d86fb9b9ff448d56594c8a75674c28a0fd4d913b7e4d342f0cd6a088888481811061064e5761064d610b13565b5b90506020020160208101906106639190610723565b82604051610672929190610bf3565b60405180910390a150808061068690610c81565b915050610510565b50505050505050565b60008054906101000a900473ffffffffffffffffffffffffffffffffffffffff1681565b600080fd5b600080fd5b600073ffffffffffffffffffffffffffffffffffffffff82169050919050565b60006106f0826106c5565b9050919050565b610700816106e5565b811461070b57600080fd5b50565b60008135905061071d816106f7565b92915050565b600060208284031215610739576107386106bb565b5b60006107478482850161070e565b91505092915050565b600080fd5b600080fd5b600080fd5b60008083601f84011261077557610774610750565b5b8235905067ffffffffffffffff81111561079257610791610755565b5b6020830191508360208202830111156107ae576107ad61075a565b5b9250929050565b60008083601f8401126107cb576107ca610750565b5b8235905067ffffffffffffffff8111156107e8576107e7610755565b5b6020830191508360208202830111156108045761080361075a565b5b9250929050565b60008060008060408587031215610825576108246106bb565b5b600085013567ffffffffffffffff811115610843576108426106c0565b5b61084f8782880161075f565b9450945050602085013567ffffffffffffffff811115610872576108716106c0565b5b61087e878288016107b5565b925092505092959194509250565b6000819050919050565b60006108b16108ac6108a7846106c5565b61088c565b6106c5565b9050919050565b60006108c382610896565b9050919050565b60006108d5826108b8565b9050919050565b6108e5816108ca565b82525050565b600060208201905061090060008301846108dc565b92915050565b600082825260208201905092915050565b7f4f6e6c792041646d696e20486173204163636573732100000000000000000000600082015250565b600061094d601683610906565b915061095882610917565b602082019050919050565b6000602082019050818103600083015261097c81610940565b9050919050565b7f41646472657373206973206e6f7420616e2061646d696e2e0000000000000000600082015250565b60006109b9601883610906565b91506109c482610983565b602082019050919050565b600060208201905081810360008301526109e8816109ac565b9050919050565b7f4172726179204c656e67746873206d75737420626520657175616c2e00000000600082015250565b6000610a25601c83610906565b9150610a30826109ef565b602082019050919050565b60006020820190508181036000830152610a5481610a18565b9050919050565b7f736f7272792c206d6178696d756d206e756d626572206f66206164647265737360008201527f6573206f6e2061206c6973742063616e6e6f74206265206d6f7265207468616e60208201527f2032303000000000000000000000000000000000000000000000000000000000604082015250565b6000610add604483610906565b9150610ae882610a5b565b606082019050919050565b60006020820190508181036000830152610b0c81610ad0565b9050919050565b7f4e487b7100000000000000000000000000000000000000000000000000000000600052603260045260246000fd5b6000819050919050565b7f4e487b7100000000000000000000000000000000000000000000000000000000600052601160045260246000fd5b6000610b8682610b42565b9150610b9183610b42565b9250817fffffffffffffffffffffffffffffffffffffffffffffffffffffffffffffffff0483118215151615610bca57610bc9610b4c565b5b828202905092915050565b610bde816106e5565b82525050565b610bed81610b42565b82525050565b6000604082019050610c086000830185610bd5565b610c156020830184610be4565b9392505050565b60008115159050919050565b610c3181610c1c565b8114610c3c57600080fd5b50565b600081519050610c4e81610c28565b92915050565b600060208284031215610c6a57610c696106bb565b5b6000610c7884828501610c3f565b91505092915050565b6000610c8c82610b42565b91507fffffffffffffffffffffffffffffffffffffffffffffffffffffffffffffffff821415610cbf57610cbe610b4c565b5b60018201905091905056fea2646970667358221220f92137f200a6255bb1f4c3e5b5bdfe0336564401602adc2ca85cb048825c1b2a64736f6c634300080a0033",
  "linkReferences": {},
  "deployedLinkReferences": {}
}